:020000040800F2
:100000005809002035020008DD2A0008951E000866
:1000100001280008CB1B0008133C0008000000006A
:10002000000000000000000000000000152D000886
:10003000CF1B000800000000FD2B0008F92F00086E
:100040004F0200084F0200084F0200084F0200084C
:100050004F0200084F0200084F0200084F0200083C
:100060004F0200084F0200084F0200084F0200082C
:100070004F0200084F0200084F0200084F0200081C
:100080004F0200084F0200084F0200084F0200080C
:100090004F0200084F0200084F0200084F020008FC
:1000A0004F0200084F0200084F0200084F020008EC
:1000B0004F0200084F0200084F0200084F020008DC
:1000C0004F0200084F0200084F0200084F020008CC
:1000D0004F0200084F0200084F0200086538000870
:1000E0004F0200084F0200084F02000800F002F81B
:1000F00000F090F80AA090E8000C82448344AAF132
:100100000107DA4501D100F085F8AFF2090EBAE82F
:100110000F0013F0010F18BFFB1A43F0010318473B
:10012000305F0000505F0000103A24BF78C878C1EB
:10013000FAD8520724BF30C830C144BF04680C60ED
:10014000704700000023002400250026103A28BF35
:1001500078C1FBD8520728BF30C148BF0B60704739
:100160006E2900F0D981702900F02383662905F0FB
:100170000486652905F00186672905F0FE85612959
:1001800005F0FD8503681B0A28BF41F0800169293D
:1001900000F08681642900F08381752900F0808158
:1001A0006F2900F0B082782900F0EF82E92900F091
:1001B0004B82E42900F04882F52900F04582EF29BE
:1001C00000F0AD82F82900F0EE820368DB0928BF59
:1001D00041F08001632900F0F587732900F0FA8768
:1001E000E32901F00580F32901F00A80002070471F
:1001F0001FB501F05BF804000020002104F088FC2A
:10020000401C60600020002104F06CFCE0601FBD19
:1002100010B510BD01F01CF81146FFF7E9FF04F01E
:100220005DF901F0F9F803B4FFF7F2FF03BC01F048
:10023000FDF800000948804709480047FEE7FEE74F
:10024000FEE7FEE7FEE7FEE7FEE7FEE7FEE7FEE786
:1002500004480549054A064B70470000F530000880
:10026000ED00000858030020580900205805002020
:10027000580500207CB51D4616460C00009001D0A4
:100280002044401E074B7B442A4669460190304675
:1002900000F05BF905461CB10020694600F068F9E2
:1002A00028467CBDF102000040EA010370B59B07BF
:1002B0002ED14FF00136042A2AD308C810C99D1B3D
:1002C0009D43121F15EAC61517D0D8B2E1B2401AE5
:1002D00050EA056110D198B2A1B2401A50EA054126
:1002E0000AD123F07F4024F07F41401A50EA0521D3
:1002F00002D1180EA0EB146070BDA342DBD018BA77
:1003000021BA884201D9012070BD4FF0FF3070BD85
:100310000AB9002070BD10F8013B11F8014B63B120
:10032000A3420AD1521E08D010F8013B11F8014B2C
:100330001BB1A34201D1521EEDD1181B70BD0000AC
:100340004FF0013C50F8042B51F8043B9A4221D164
:10035000A2EB0C03934313EACC1317D150F8042BF0
:1003600051F8043B9A4215D1A2EB0C03934313EAD4
:10037000CC130BD150F8042B51F8043B9A4209D10D
:10038000A2EB0C03934313EACC13DBD04FF0000035
:10039000704700BFD01A01BAB1FA81F101F018011B
:1003A00022FA01F0CB40C1F12001DBB2C0B2C01A89
:1003B0002CFA01F3D11A914311EAC311E6D1704727
:1003C00070477047704710B500F0C2FA006810BD62
:1003D00010B5044600F0BCFA046010BD70B50446C8
:1003E00085690068C10601D5302600E02026C007D7
:1003F00007D070BDD4E9012130469047206A401CE7
:1004000020626D1EF6D570BD70B504468569007812
:10041000C00707D170BDD4E9012120209047206A90
:10042000401C20626D1EF6D570BD09684A0501D5D5
:1004300040B27047C905FCD500B2704709684A054B
:1004400001D5C0B27047C905FCD580B2704770B500
:100450000C460546012A05D02878800600D5EA69B1
:10046000002302E0012305E05B1C934202D2E05C22
:100470000028F9D1A869E618C01AA861286A1844AA
:1004800028622846FFF7AAFF04E0D5E9012114F805
:10049000010B9047B442F8D32846FFF7B5FF70BD73
:1004A0002DE9F0410646002410687529314616A54D
:1004B00010D0FFF7BAFF002802DA404213A507E088
:1004C00031688A0701D512A502E0490704D511A5B4
:1004D000012401E0FFF7B2FF00210A2206F1240700
:1004E00009E0B0FBF2FCB0FBF2F302FB1C00303081
:1004F00078541846491C0028F3D123462A46304632
:10050000BDE8F04100F06DBA000000002D000000D1
:100510002B0000002000000011680268006A5305EB
:1005200001D508700AE0D30501D5088006E013065E
:1005300003D5C217C1E9000200E00860012070473E
:1005400001694A1C02610878704700B58FB0CDE997
:1005500001310021059105497944CDE90310114687
:10056000684600F031F90FB000BD0000E5FFFFFF65
:100570000A6802F8010B0A607047D1E900239A4229
:1005800002D2531C0B601070704700002DE9FF5F12
:1005900015468A460446DFF8AC80F8440027D8E9BF
:1005A00000103E46CDE9001010E03AF816106A46F9
:1005B00002A800F029FE411C07D02178890603D546
:1005C000E269391891420DD80744761C20788006DC
:1005D00002D5E069B84205DDAE42E6DB3AF8160026
:1005E0000028E2D1A069C01BA0612046FFF7F6FEFB
:1005F000D8E90010CDE90010002017E03AF81810F3
:100600006A4602A800F000FEB0F1FF3F81460BD021
:1006100000250DF1080B05E0D4E901211BF80500C8
:1006200090476D1C4D45F7D308F10100B04280465C
:10063000E4DB206A384420622046FFF7E5FEBDE88F
:10064000FF9F0000D65800002DE9F0418046D21DE2
:1006500022F007020025D2E90002F52915A614D0E0
:10066000011E72F1000106DA0023D0EB030063EBF8
:10067000020211A608E0D8F800108B0701D50FA6DA
:1006800002E0490701D50EA601251146002408F114
:10069000240704E000F060F930323A55641C50EA57
:1006A0000102F7D12B46324621464046BDE8F041D3
:1006B00000F097B9000000002D0000002B000000A2
:1006C0002000000030B4002100F1240408E002F012
:1006D0000705D208303542EA4372DB086554491CED
:1006E00052EA0305F3D10468002310A2250707D5B9
:1006F000A40600D421B1C46901230DA2641EC46103
:1007000030BC00F06EB910B5044621461068FFF702
:1007100095FE02462046BDE810400023D2E7D21DD8
:1007200022F00701D1E90023CCE70000000000001F
:1007300030000000F0B40D460188090502D5214CB7
:100740007C4402E01F4C7C440E34002100F124065E
:1007500008E002F00F071209E75D42EA03721B0985
:100760007754491C52EA0307F3D102780023120799
:1007700004D5702D06D009B1022311342246F0BCF5
:1007800000F02FB901231034F8E770B504460D4688
:1007900021461068FFF752FE024629462046BDE872
:1007A00070400023C6E7D21D22F00703D3E90023DF
:1007B000C0E70368126843F0200303600823C361A5
:1007C0000023B7E7385700002DE9F05F894604465B
:1007D0004FF0000ADFF874B1FB44C0F820A02046B7
:1007E000E1688847002874D0252806D0D4E9012183
:1007F0009047206A401C2062F1E700265F462046B1
:10080000E16888472028054607DB312D05D2781995
:1008100010F8200C08B10643F1E7B00701D526F027
:100820000406C4F81CA00027C4F818A02A2D09D07B
:10083000284603F0C9FA38B304EB8708303DC8F8FE
:10084000185019E059F8041B204604EB8702916107
:10085000E1688847012F054618D1E069002820DAB1
:1008600026F020061DE0D8F8180000EB800005EB0C
:1008700040003038C8F818002046E168884705462F
:1008800003F0A2FA0028EED1012F0AD02E2D08D1B4
:100890002046E16888477F1C0546022F46F0200667
:1008A000C4DBA069002803DA404246F00106A061DB
:1008B000F00701D026F010066C2D0BD0682D09D062
:1008C0004C2D39D06A2D35D0742D35D07A2D33D0BA
:1008D00016E038E0E1682F4620468847B8420546D2
:1008E00009D16C2F26D04FF48060E1680643204682
:1008F0008847054604E06C2F1AD04FF480700643F9
:100900000DB3A5F14100192802D8203546F4006640
:100910004A462946204626604E46FFF721FC80B114
:1009200001280BD0F61D26F0070000F1080956E754
:100930004020E4E78020D8E70020D6E706F104094C
:100940004DE7284652E7206ABDE8F09FC8560000F0
:1009500000487047F402002030B5B0F10A024FEAB7
:10096000900E71F100034EEA817EB0EB0E0061EB58
:1009700091014FEA101E4EEA017E10EB0E0041EB92
:1009800011114FEA102E4EEA016E10EB0E0041EBF2
:1009900011214FEA104E4EEA014E10EB0E0041EBD2
:1009A0001141401841F100014FEAD00040EA417086
:1009B0004FEAD10110EB80054FEA810444EA9074BC
:1009C00044EB01046D1944EB0404521BA3414FF0A6
:1009D000000348BF0A3200D530BD401C41F1000180
:1009E00030BD2DE9F0470D4699469246044600F188
:1009F00024080168880604D5E06921F0100121600F
:100A000000E00120A84201DD471B00E00027A169AA
:100A10007A1902EB0900081AA0612078C00602D4F6
:100A20002046FFF7DBFC002608E0D4E901211AF894
:100A300006009047206A401C761C20624E45F4DB7D
:100A40002078C0060AD52046FFF7C8FC06E0D4E9A6
:100A5000012130209047206A401C2062381EA7F1F7
:100A60000107F4DC07E0D4E9012118F805009047FC
:100A7000206A401C2062281EA5F10105F3DC2046F7
:100A8000FFF7C2FC2078000602D50220BDE8F087FF
:100A90000120FBE770472DE9FF4F0C461E464FF043
:100AA000FF378BB0D2E90001DDF860800A908A46FA
:100AB000C1F30A5505B93D46002108464FF0000034
:100AC000BAF1000F00F4400005DA00EB80004FF4AB
:100AD000400101EA50004FEA9059B9F1010F00DDE1
:100AE000B9460A9850EA4A000ED044F61050A5F2D2
:100AF000FF3545432F14B8F1000F1ED07542291E53
:100B00001EDDC9F100021CE0B8F1010F4FF000003A
:100B100001D0302103E0F24305E02154401CB042F3
:100B2000FBDB30460022002121540B99C1F80880DC
:100B3000C1E900200FB0BDE8F08FBD1B6D1CDEE7E2
:100B40004A4600DA694206A800F0F4FB06AB93E8D7
:100B5000070003AB83E8070050460A9900F06DFCDC
:100B60008DE80700A0F500501F3800900398002D75
:100B70000ADD42F21F014A460844002303A90390FC
:100B8000684600F0D6FE09E0A0F500504A461F383E
:100B9000002303A90390684600F0E0FE8DE80700FB
:100BA0000004000C03D04FF0FF30410800E0104675
:100BB000B8F1000F03D00022009215461EE0751E0A
:100BC00005D4FFF7C9FE303262556D1EF9D5B34624
:100BD0000122084302D000227F1C04E02078302844
:100BE00001D100227F1E002A099784D01DE0112D1B
:100BF00007DAFFF7B1FE303262556D1C50EA010290
:100C0000F5D1084302D00098C8B10EE00021681E5B
:100C100005E0235C625C63542254401E491C8142FF
:100C2000F7DBAB46A81B401E0990002004F80B0020
:100C30000B98099AC0F80880C0E9002B7AE71126C2
:100C40004FF0000857E72DE9F04F88460446D21DC3
:100C500022F0070191B0D1E90001CDE90A0103F0CA
:100C60003DF802460B98C00F01D02D2007E0206808
:100C7000810701D52B2002E0202101EAC000032AD0
:100C8000099001D0072A05DB03464146204600F0C3
:100C900011FB0BE12078800601D5E06900E0062019
:100CA000B8F1650F814606D0B8F1660F18D0B8F1DB
:100CB000670F70D131E00020B9F1110F009001DB16
:100CC000112301E009F101030AAA01A90CA8FFF709
:100CD000E2FEDDE90C70002609F10105834647E0DC
:100CE00001204B4600904FF000470AAA01A90CA82A
:100CF000FFF7D1FEDDE90DB00C995D46002610B975
:100D000009F101000D18B9EB050003D4C0F1FF365D
:100D100009F10105A5EB09002BE0B9F1010F01DA9A
:100D20004FF001090020B9F1110F0090484601DD94
:100D3000112300E003460AAA01A90CA8FFF7ABFEA5
:100D4000DDE90C704D4600268346207800070AD462
:100D5000AB4500DA5D4601A8012D04DD411911F80B
:100D6000011C302907D04F4502DA17F1040F04DACD
:100D7000012082460FE06D1EEEE7002F02DCED1B26
:100D80003E4403E0781CA84200DD7D1CB81B00F146
:100D9000010A4FF000472078000703D4AA4501DB81
:100DA0004FF0FF3A0021B7F1004F0DF143088DF8E5
:100DB000431024D002202B23002F01DA7F422D2361
:100DC0000A21021EA0F1010000DC5FB197FBF1FCDB
:100DD00097FBF1F201FB1C7C17460CF1300C08F874
:100DE00001CDEEE7A8F1010003702188090501D5C6
:100DF000452100E06521A0F1010800F8011C0998D7
:100E00000FA9A1EB0807FF1D00B10120411901EB5B
:100E1000EA70A1693844081A401EA0612078C00613
:100E200002D42046FFF7DAFA099828B1D4E9012163
:100E30009047206A401C20622078C00622D52046B8
:100E4000FFF7CCFA1EE0002E04DBB34502DD01A85B
:100E5000805D00E03020D4E901219047206A401CE9
:100E60002062761CAAF101005FEA000A0AD100F0B4
:100E70001DFAC0680168405CD4E901219047206AEE
:100E8000401C2062281EA5F10105DCDC07E0D4E946
:100E9000012118F8010B9047206A401C2062381E7F
:100EA000A7F10107F3DC2046FFF7AEFA032011B0EB
:100EB00041E600002DE9F04F04460D46D21D22F018
:100EC000070089B0D0E900974846394602F006FF8E
:100ED0000246F80F01D02D2307E02068810701D5D5
:100EE0002B2302E0202101EAC0038DF820300BB152
:100EF000012000E00020032A824601D0072A04DBFB
:100F00002946204600F0D6F93FE12078800601D43A
:100F10000D2500E0E569C7F30A560D2D49DA0021D9
:100F20004FEA175B08464FF00000002F00F4400026
:100F300007DA00EB80004FF4400100EBD07001EACB
:100F400060008115012901DD4FF0FF3100224FEAD9
:100F5000850CBCF1180F06D31346ACF118004FF006
:100F60008052C24003E04FF4801323FA0CF30CF1DB
:100F70000C0CBCF1200F04D3ACF1200C09FA0CF0DE
:100F800001E007FA0CF000294FF0004801DD18B924
:100F90000FE00ED140450CD319EB02095F4121B996
:100FA000404502D19F4329EA0209BBEB175F00D0FD
:100FB000761C2088000502D57B48784402E07A48F8
:100FC0007844193808AA302302F80A30037C0AF161
:100FD0000101002E0AF1020A53546A4602DC4FF066
:100FE000300101E04FF031014FF001088DF80010A1
:100FF00002D0A6F2FF3603E059EA470100D06B4E5B
:10100000002D02DC2178090704D54FF002082E21BB
:101010008DF80110C44600210BE0C7F303433F01E4
:10102000C35C491C6D1E02F80830052908F101084F
:1010300001DA002DF1DC00210CE000EB1973491CF2
:101040001B786D1E082902F808304FEA091908F1CB
:10105000010801DA002DF0DC21688B0602D516E0CC
:10106000A8F10108E04505DD02EB080313F8013C97
:10107000302BF5D0B8F1000F09DD02EB080313F8AF
:10108000013C2E2B03D1090701D4A8F10108002D42
:1010900005DD3E2102F808106D1E08F10108407CB4
:1010A000002E02F8080008F1010804DA2D2076422B
:1010B00002F8080002E02B2002F808000A214FF491
:1010C0007A70864208F101080BDB96FBF0F33033AF
:1010D00002F8083096FBF0F308F1010800FB1366F4
:1010E00001E0642E0CDB642096FBF0F3303302F851
:1010F000083096FBF0F308F1010800FB136601E0ED
:101100000A2E06DB96FBF1F0303002F8080008F1F9
:10111000010896FBF1F001FB1060303002F8080086
:10112000A16908F1010808EB050202EB0A00081AA0
:10113000A0612078C00602D42046FFF74FF9216A4B
:1011400008AE01EB0A00206204E0D4E9012116F8A0
:10115000010B9047BAF1010AF7D22078C00602D5F8
:101160002046FFF73BF96E4609E016F8010B3E28D2
:101170000FD0D4E901219047206A401C2062B8F1C9
:101180000108F2D22046FFF73FF909B00320BDE87D
:10119000F08F206A2844206203E0D4E90121302046
:1011A00090476D1EEBD3F8E7AD4F000002FCFFFF48
:1011B00010B5436913B1AFF3008001E0FFF747F9C1
:1011C000012010BD127800F124010A7000224A703B
:1011D0000122EDE711684FF0FF32E9E710B54369EE
:1011E00013B1AFF3008001E0FFF7D0F9012010BD8B
:1011F000128800F1240182840022C2840122EDE7DA
:1012000011684FF0FF32E9E770B516460C46054607
:1012100000F044F8036893F80101012806D0FF2C80
:101220000FD8185D68B101202C7070BDD3F807018C
:101230003246214603F2071303442846BDE87040B6
:1012400018474FF0FF3070BD00487047F40200208F
:101250007546FFF7F9FFAE4605006946534620F094
:101260000700854618B020B5FEF7F2FFBDE8204024
:101270004FF000064FF000074FF000084FF0000B52
:1012800021F00701AC46ACE8C009ACE8C009ACE805
:10129000C009ACE8C0098D467047000010B500F0E9
:1012A00005F8001D10BD00BF6938000000487047F8
:1012B000140300202DE9F0411F460446032601686F
:1012C000072A01F4006004DB08B116A505E016A5A5
:1012D00003E008B115A500E015A521F0100020607D
:1012E000A069C01EA0610FB1401EA0612046FFF79B
:1012F00075F84FB1D4E9012138469047206A401C67
:101300002062C01C206206E0206AFAE7D4E90121CD
:1013100015F8010B9047761EF8D22046FFF774F8B7
:10132000BDE8F0814E414E006E616E00494E4600B0
:10133000696E66002DE9F047814616468AB0354849
:1013400078440DC88DE80D0032487844801C03AC09
:101350000DC884E80D0041F69B300844372190FB0E
:10136000F1F290FBF1F5A5F1800501FB12041B3CA5
:1013700002D56442012000E00020DFF898A08046FA
:101380000027FA44AAF1BE0A0EE0E0070AD032466E
:10139000684607EB470101230AEB810100F0DEFA02
:1013A0008DE8070064107F1C002CEED1194F7F449C
:1013B000AE3F19E0E80715D007EB04100DF1180A4D
:1013C00090E80E008AE80E00C068F04201D198193A
:1013D00008903246012306A903A800F0BFFA03AB28
:1013E00083E807006D10641C002DE3D14FF001036A
:1013F00032466946B8F1000F03A802D000F099FA0E
:1014000001E000F0ABFAC9E90001C9F808200AB010
:10141000BDE8F087B84C000010B50446AFF300807B
:101420002046BDE81040FEF7FEBE0000014918202E
:10143000ABBEFEE72600020070475FEA400C08BF23
:1014400091F0000F4FEA8C234FEAC12243EA515139
:101450004FEA1C5018BF00F5F0404FEA300018BFAB
:1014600041F000415FEA6C5C00F02980BCF1FF3F75
:1014700008BF40F080407047130C06BF12044FF0C5
:10148000100C4FF0000C130E04BF12020CF1080CEC
:10149000130F04BF12010CF1040C930F04BF920050
:1014A0000CF1020CD30F04BF52000CF1010C1146D9
:1014B0004FF00002A0F11F00A0EB0C00704711F0EC
:1014C000004F08BF704731F000413FF4D5AF0B0C1F
:1014D00006BF09044FF0100C4FF0000C0B0E04BFB8
:1014E00009020CF1080C0B0F04BF09010CF1040CEC
:1014F0008B0F04BF89000CF1020CCB0F04BF490015
:101500000CF1010CCCF12003A0EB0C0022FA03F348
:1015100002FA0CF241EA030100F10100704720F0E9
:101520007F4C80EA030023F07F47ACEB070303F511
:101530007C5300F0004003F1FF032DE980494FEA9E
:10154000154B09B44FEA144325EA0B4E24EA03482D
:101550000FF2042606EB132749083E785FEA3202B1
:1015600003FB0667C7F5000707FB06F64FEA54378B
:101570004FEAD64606F1020607FB066CCCF1005C8A
:101580004FEA1C472CEA074C07FB06F40CFB06F558
:1015900004EB15464FEA961634BF00204FF000408A
:1015A0004FEAD13706FB07FC4FEA1C4C0CFB0BF74C
:1015B000D21B03FB0CF761EB07010CFB0EF7B0EB42
:1015C000074072EB17420CFB08F734BFA2EB07424F
:1015D000B2EB074261EB17414FEA0C444FEA910727
:1015E00006FB07FC4FEA1C4C0CFB0BF7B0EBC740AB
:1015F00072EB573203FB0CF734BFA2EBC742B2EBDE
:10160000C74261EB57310CFB0EF7B0EBC70072EB32
:1016100057720CFB08F734BFA2EBC702B2EBC7024C
:1016200061EB5771039F4FEA816141EA921104EB2C
:10163000CC044FEAD1374FEA826206FB07FC42EA4C
:1016400090124FEA80604FEA1C4C0CFB0BF7D21B48
:1016500003FB0CF761EB07010CFB0EF7B0EB074047
:1016600072EB17420CFB08F734BFA2EB0742B2EB58
:10167000074261EB17414FEA8C554FEA910704EBA3
:101680009C2406FB07FC4FEA1C4C0CFB0BF7B0EB51
:10169000C74072EB573203FB0CF734BFA2EBC742D3
:1016A000B2EBC74261EB57310CFB0EF7B0EBC70052
:1016B00072EB57720CFB08F734BFA2EBC702B2EB18
:1016C000C70261EB577115EB4C254FEA816141EA86
:1016D00092114FEA82624FEAD13742EA901206FB3A
:1016E00007FC44F100044FEA80604FEA1C4C0CFBFD
:1016F0000BF7D21B03FB0CF761EB07010CFB0EF79A
:10170000B0EB074072EB17420CFB08F734BFA2EBBB
:101710000742B2EB074261EB174115EB1C154FEA8C
:10172000813141EA92414FEA823242EA90424FEAE5
:1017300080304FEA0C7644F1000448EA03434EEA55
:101740000B484FF0000EB2EB080C71EB030724BFFF
:10175000624639464EEB0E0E4FF0000B0018524118
:1017600049414BEB0B0BB2EB080C71EB03077BF120
:10177000000B24BF624639464EEB0E0E4FF0000BB5
:101780000018524149414BEB0B0BB2EB080C71EBCB
:1017900003077BF1000B24BF624639464EEB0E0E69
:1017A00051EA020718BF46F0010616EB0E7655F116
:1017B000000254F1000103D5BDE88901BDE80088AD
:1017C000BDE88901BDE80048B619524141EB01016D
:1017D000A3F10103704780807F7E7D7C7B7A7978DE
:1017E000777676757473727171706F6E6E6D6C6CE6
:1017F0006B6A6A6968686766666564646363626188
:101800006160605F5F5E5E5D5D5C5C5B5B5A5A5908
:101810005958585757565655555554545353525274
:101820005251515050504F4F4F4E4E4D4D4D4C4CCC
:101830004C4B4B4B4A4A4A49494948484847474715
:101840004746464645454544444444434343434252
:10185000424242414141002B9C4630D477002BD07C
:101860001CB54FEA370703B44FF010004FF01001DA
:10187000BAF1000F06D0BCF1000FDCBF40F0080049
:1018800040F008014FF000000FBCBDE810400BF124
:10189000010BBBF1010F08BF5FEA170722BF12F16E
:1018A000010211F101014FF0004143F1000300F08A
:1018B000004043EA00007047F9D35708D0E746EAF2
:1018C000064613F1400F4FEA16461FDD13F1200FB5
:1018D000DFBF16430A46002120335B42BED0C3F16E
:1018E000200746EA064602FA07F74FEA164646EA96
:1018F0000706C3F1200722FA03F201FA07F721FADB
:1019000003F14FF0000342EA0702A7E746EA0206A6
:1019100046EA06464FEA164646EA0106BCBF46EAD4
:101920000646360C4FF000034FF000024FF0000166
:1019300094E72DE9804C9A46934670B491E83800BC
:1019400007C831EA400C48BF34EA430C03D5FFF71F
:10195000E6FDFFF780FFF0BCBDE8008C2DE9804C70
:101960009A46934670B491E8380007C810F0804F4B
:1019700008BF13F0804F03D100F005F8FFF76BFFAD
:10198000F0BCBDE8008C20F07F4780EA030023F024
:101990007F4C07EB0C03A3F57C5300F00040A3F150
:1019A000FE0392F0000F00F0B38095F0000F00F0FE
:1019B00077802DE901494FEA11404FEA144621EAA8
:1019C000004800FB06FC24EA064708FB06F607FB76
:1019D00008F800FB07F718EB06484CEB164C4FEAEB
:1019E000124B18EB07484FEA15464CEB174022EA1A
:1019F0000B4E0BFB06FC25EA06470EFB06F607FB23
:101A00000EFE0BFB07F71EEB064E4CEB164C4FF091
:101A100000061EEB074E4CEB174B18EB0B0840F182
:101A2000000018EB0E0B58EB000840F100008F1A75
:101A30004FF000013CBFC943661B14BFB5EB040C5B
:101A400000213CBFC943F61B4FEA17444EEA8E0EF5
:101A500027EA04454FEA1C4704FB07622CEA074CBF
:101A600005FB07F70CFB05F604FB0CFC16EB074621
:101A700042EB174216EB0C4642EB1C421BEB0606F0
:101A800058EB0202414146EA9E0601D5BDE80189B4
:101A9000B619524141EB0101A3F10103BDE80189EF
:101AA0004FEA14454FEA114724EA054621EA074C5C
:101AB00005FB07F406FB07F70CFB06F105FB0CFC26
:101AC00011EB074144EB17444FEA124711EB0C416D
:101AD00044EB1C4422EA074C05FB07F206FB07F720
:101AE0000CFB06F605FB0CFC16EB074642EB174217
:101AF00016EB0C4642EB1C456A1854F1000148BF36
:101B00007047B619524141EB0101A3F1010370473F
:101B100095F0000F37D04FEA11424FEA144721EAFF
:101B2000024624EA074C02FB07F106FB07F70CFB11
:101B300006F402FB0CFC14EB074441EB17414FEA9F
:101B4000154714EB0C4441EB1C4125EA074C02FB02
:101B500007F506FB07F70CFB06F602FB0CFC16EB81
:101B6000074645EB174516EB0C4645EB1C42121990
:101B700051F1000148BF7047B619524141EB0101D4
:101B8000A3F1010370474FEA14454FEA114724EAD5
:101B9000054621EA074C05FB07F106FB07F70CFB9E
:101BA00006F24FF0000605FB0CFC12EB074241EB7E
:101BB000174112EB0C4251EB1C4148BF7047921881
:101BC00041EB0101A3F10103704700BFFEE770473D
:101BD00000B5034603E04FF47A7000F005F8181ED4
:101BE000A3F10103F7D100BD00B9704700EBC001BC
:101BF000C9004FF0E022516100219161052111617E
:101C000000BF4FF0E021096901F480310029F8D0CC
:101C100004214FF0E022116100BFE6E710B5044651
:101C20009CB10120164908701648B0F90000002840
:101C300004DA1448B0F90000404202E01148B0F95B
:101C4000000000B20F49088013E0FF200C49087023
:101C50000C48B0F90000002804DA0A48B0F9000086
:101C6000404202E00748B0F90000404200B2054996
:101C7000088000F011F901200349088010BD000020
:101C80001500002054000020680000202DE9F041DC
:101C9000024600250026002000230024002791F89A
:101CA00003C00CF00F0591F803C00CF0100CBCF150
:101CB000000F03D091F802C04CEA050591F800C06E
:101CC000BCF1000F31D0146800202BE04FF0010C64
:101CD0000CFA00F3B1F800C00CEA03069E4220D1D2
:101CE00083004FF00F0C0CFA03F7BC4305FA03FC1A
:101CF0004CEA040491F803C0BCF1280F06D14FF060
:101D0000010C0CFA00FCC2F814C00AE091F803C000
:101D1000BCF1480F05D14FF0010C0CFA00FCC2F8E1
:101D200010C0401C0828D1D31460B1F800C0BCF129
:101D3000FF0F34DD546800202EE000F1080C4FF056
:101D4000010808FA0CF3B1F800C00CEA03069E4241
:101D500021D183004FF00F0C0CFA03F7BC4305FAB6
:101D600003FC4CEA040491F803C0BCF1280F05D130
:101D700000F1080C08FA0CF8C2F8148091F803C0BE
:101D8000BCF1480F07D100F1080C4FF0010808FA28
:101D90000CF8C2F81080401C0828CED35460BDE86F
:101DA000F0810000F0B50A46002300240021002540
:101DB00000F00046B6F1004F02D11D4EF16901E07E
:101DC0001B4E7168C0F3034583B200F44016B6F5AC
:101DD000401F08D121F07061154E766826F07066BC
:101DE000134F7E6012E000F48016B6F5801F06D116
:101DF000032606FA05F4A14341F0706106E0460DA2
:101E0000360103FA06F6B14341F0706122B1460D86
:101E1000360103FA06F6314300F00046B6F1004FF2
:101E200002D1034EF16101E0014E7160F0BD00008E
:101E3000000001400246002093680B400BB10120D6
:101E400000E0002070470AB1016100E04161704785
:101E500005480078022804D10020034908700120B9
:101E600070470020FCE700002C000020004870476D
:101E70000C02002010B5024801F0CBFA00B210BDF0
:101E80000008004010B5024801F0C3FA00B210BDCE
:101E90000004004000BFFEE700200949088009490E
:101EA000086009490860094908600949086009494A
:101EB00008600949086009490860094908607047D5
:101EC00056000020580000205C0000206000002028
:101ED00064000020700000206C00002080000020C2
:101EE0007C00002010B5029C016042608360C460E9
:101EF00010BD2DE9F04104460D462168E06803F06D
:101F0000F3FBE0606168E06803F0EEFB06463146F3
:101F1000E06803F057FC20612846A16803F0B8FE92
:101F20000746216903F0ACFD0646A16803F0DCFB1F
:101F3000A0604FF07E50216903F0AAFE0646E168DA
:101F400003F09EFDE060A068BDE8F0812DE9F04F50
:101F500095B00446204600F035F9B4F9000003F0CE
:101F60002FFD07468C480168384603F089FD064678
:101F7000B4F9020003F024FD07468748016838469B
:101F800003F07EFD8146B4F9040003F019FD074615
:101F900081480168384603F073FD8246B4F90600B3
:101FA00003F00EFD80467D480168404603F068FD61
:101FB00007467B480168384603F062FD1390B4F988
:101FC000080003F0FDFC804674480168404603F0B9
:101FD00057FD074672480168384603F051FD1290DC
:101FE000B4F90A0003F0ECFC80466C4801684046F6
:101FF00003F046FD07466A480168384603F040FD95
:1020000011905146504603F03BFD49460C9048461E
:1020100003F036FD31460B90304603F031FD0A9057
:102020000B9903F061FB83460C9903F05DFB0D9067
:1020300003F02EFB074602F02FFDCDE90E0102F062
:102040007DFD1090109803F023FB07464FF03332CC
:10205000544B03F00BF901D2534D00E0534D54485B
:102060001299006803F040FB5149086051481399E8
:10207000006803F039FB4F49086029464FF07E5055
:1020800003F006FE80464A480168404603F0F8FC2B
:10209000074603F0FDFACDE90C01504603F0F8FACB
:1020A000CDE90201484603F0F3FACDE90001DDE98C
:1020B000022301F0A1FFCDE90401284603F0E8FA6C
:1020C0000746DDE9042302F0D3FF4FF080423A4B8C
:1020D000CDE9060102F020FE0022384BCDE90801CF
:1020E00002F0C6FFCDE90A01DDE90C2302F058FD3C
:1020F000CDE90E0102F022FD606129464FF07E50CD
:1021000003F0C6FD80462B480168404603F0B8FC4A
:10211000074603F0BDFACDE90C01504603F0B8FACA
:1021200007468846304603F0B3FA3A464346CDE9BF
:10213000000101F061FFCDE90401284603F0A8FA8F
:10214000CDE90201DDE9042302F092FF4FF0804265
:10215000194BCDE9060102F0DFFD0022174BCDE956
:10216000080102F085FFCDE90A01DDE90C2302F048
:1021700017FD81F00041CDE90E0102F0DFFCA06106
:102180000F49119803F07CFC0746216903F0ACFA73
:10219000206115B0BDE8F08FD4000020D0000020F1
:1021A000C00000203333F33FCDCC4C3F48E17A3FB1
:1021B000E4000020E8000020FB2109400080664088
:1021C000E62E654270B50446524B0E223B21524822
:1021D00000F0A6FA4F4840784E49097840EA0120BD
:1021E00000B220804B48C0784A49897840EA0120F3
:1021F00000B26080474840794649097940EA0120A9
:1022000000B2A0804348C0794249897940EA012060
:1022100000B2A0813F48407A3E49097A40EA012055
:1022200000B2E0803B48C07A3A49897A40EA01200E
:1022300000B220813748407B3649097B40EA0120C3
:1022400000B26081E08835490988401A00B2E08018
:10225000208933490988401A00B2208160893149B8
:102260000988401A00B26081B4F9000003F0A8FBAD
:10227000064631462C4800F075FC054603F064FB29
:1022800000B22080B4F9020003F09AFB0646314602
:10229000264800F067FC054603F056FB00B260805C
:1022A000B4F9040003F08CFB06463146204800F0E8
:1022B00059FC054603F048FB00B2A080B4F90600C3
:1022C00003F07EFB064631461A4800F04BFC0546FB
:1022D00003F03AFB00B2E080B4F9080003F070FBB1
:1022E00006463146144800F03DFC054603F02CFB41
:1022F00000B22081B4F90A0003F062FB06463146C1
:102300000E4800F02FFC054603F01EFB00B2608172
:1023100070BD0000E40200208C020020D8000020E4
:10232000DA000020DC0000209C020020A80200202F
:10233000B4020020C0020020CC020020D8020020FD
:102340002DE9F05F0446207930B1082807D0102825
:1023500008D018280CD108E04FF08D4508E04FF068
:102360008C4505E04FF08B4502E04FF08A4500BFF9
:1023700000BFE07830B1082806D0102806D0182811
:1023800008D105E03D4E05E03D4E03E03D4E01E045
:102390003D4E00BF00BF29464FF07E5003F012FAB9
:1023A0003A49086031463A4803F00CFA3949086066
:1023B00080226B21384800F0FBF96420FFF708FC0D
:1023C00000226B21344800F0F3F92088B0F57A7FC1
:1023D00003DB4FF47A70208004E02088042801DABF
:1023E00004202080208803F003FB834659462B48B5
:1023F00003F0E8F982464FF07E5103F049FC814634
:1024000003F0BEFA00F0FF0842461921224800F00E
:10241000CFF900223721204800F0CAF9A2793821EB
:102420001D4800F0C5F9A2781A211B4800F0C0F938
:10243000E2781B21184800F0BBF922791C211648CC
:1024400000F0B6F962792321134800F0B1F90027B2
:10245000607900B14027A07900F0010008B947F089
:1024600008073A466A210C4800F0A2F901226B21C4
:10247000094800F09DF9BDE8F09F0000000003430B
:10248000000083423333034233338341D4000020BE
:1024900039FA8E3CD00000208C02002000007A44E3
:1024A0002DE9FF5F0446002500260027AB462FE0FC
:1024B00002AB06224321574800F032F99DF808008C
:1024C000000200B29DF8091040EA01089DF80A00D8
:1024D000000200B29DF80B1040EA01099DF80C00C3
:1024E000000200B29DF80D1040EA010A45444E4436
:1024F000574449494948006803F0C2FA009003F084
:102500003FFA0190FFF764FB0BF101001FFA80FB1B
:10251000A345CDDB95FBF4F000B24149088096FB62
:10252000F4F000B23F49088097FBF4F000B23E4956
:1025300008800020054606460746834641E002AB78
:1025400006224321334800F0EBF89DF80800000212
:1025500000B29DF8091040EA01089DF80A00000247
:1025600000B29DF80B1040EA01099DF80C00000232
:1025700000B29DF80D1040EA010A29480088A8EB36
:1025800000000FFA80F827480088A9EB00000FFA36
:1025900080F925480088AAEB00000FFA80FA45442C
:1025A0004E4457441C491D48006803F069FA0090E6
:1025B00003F0E6F90190FFF70BFB0BF101001FFAA6
:1025C00080FBBBF1640FBADB642395FBF3F2002AB6
:1025D00001DB134600E05342022B18DB642396FB19
:1025E000F3F1002901DB0B4600E04B42022B0EDB2E
:1025F000642397FBF3F0002801DB034600E043422D
:10260000022B04DB4FF0FF3004B0BDE8F09F002048
:10261000FAE700008C02002000007A44C00000208D
:10262000D8000020DA000020DC000020F0B585B0E2
:1026300004460D4616460520682123462A46CDE964
:102640000061029021462C4800F0BCF9C820ADF88A
:102650000C0004208DF80E0018208DF80F000820C3
:102660008DF8100000208DF8110001208DF8120067
:1026700003A8FFF765FEBDF80C0003F0B9F90746A3
:1026800039464FF07E5003F09DF81C4908604FF426
:10269000B470FFF79DFA002705E0C820FFF700FFA0
:1026A00000B902E07F1C032FF7DB00BFBDF80C2050
:1026B0001349144800F088FABDF80C20104912485C
:1026C00000F082FABDF80C200D49104800F07CFAA9
:1026D000BDF80C200E490F4800F076FABDF80C202A
:1026E0000B490D4800F070FABDF80C2008490B4862
:1026F00000F06AFA05B0F0BD8C020020C000002096
:10270000000040429C020020A8020020B4020020E9
:102710000000B042C0020020CC020020D8020020FD
:102720002DE9F04104460F46164698461F480460BE
:1027300001F09AFA607B01F0BCFA01F06CFA012812
:1027400003D101F09FFABDE8F081384601F0B1FAFB
:1027500001F061FA012802D101F094FAF3E701F0E7
:1027600083FA617B41F0010001F0A3FA01F053FA12
:10277000012802D101F086FAE5E700250FE001F01B
:1027800059FA08F80500701EA84203DD002001F088
:1027900084FA02E0012001F080FA681C85B2B5429B
:1027A000EDDB01F06FFA00BFCDE700001C01002057
:1027B00070B504460E4615461048046001F054FA00
:1027C000607B01F076FA01F026FA304601F071FAEA
:1027D00001F021FA207B012808D1281201F069FAC2
:1027E00001F019FAE8B201F064FA02E0E8B201F08F
:1027F00060FA01F010FA01F045FA70BD1C010020EA
:1028000000BFFEE700B587B00121092000F008FAFB
:1028100001213848FFF7C6FA01213748FFF7C2FA0D
:1028200048208DF81B000020ADF81800F020ADF80E
:10283000180003208DF81A0006A93048FFF726FA81
:102840000121042000F0DCF90121022000F0D8F978
:102850000020ADF81200ADF80E004FF6FF70ADF895
:1028600010000020ADF80C008DF8140003A92448D6
:1028700000F0A6FF03A9234800F0A2FF684600F07D
:1028800021FE0020ADF800000F20ADF80800002068
:10289000ADF8020069461A4800F0BEFD69461948C5
:1028A00000F0BAFD0420ADF800000F20ADF80800DC
:1028B0000020ADF802006946124800F0ADFD6946FF
:1028C0000F4800F0A9FD0223002203210C4800F06C
:1028D0007FFD0223002203210A4800F079FD012137
:1028E000074800F05AFD0121064800F056FD07B0E8
:1028F00000BD00000002300000081A00000C01407A
:10290000000800400004004000B589B00121042007
:1029100000F086F918208DF823004FF47060ADF8B0
:10292000200003208DF8220008A92448FFF7AEF903
:102930000121C80200F074F9214800F0CCFD00200C
:10294000ADF81A00ADF8160040F2CF20ADF818002F
:102950000020ADF814008DF81C0005A9184800F0FF
:102960002FFF0121164800F015FD01A800F0E6FE3A
:102970006020ADF804000020ADF80C000120ADF897
:1029800006000020ADF80A0001A90D4800F0AAFDDC
:1029900001A90B4800F0F2FD01A9094800F040FE32
:1029A00001A9074800F08CFE0121054800F001FD57
:1029B0000121034800F0F1FC09B000BD000801400E
:1029C000002C01402DE9F84F06460C4617461D46DF
:1029D000DDE90B9ADDF828803848066034603781DD
:1029E0007560A6F80A80002030734FEA4960000E37
:1029F0007073A6F80EA03248844201D0854204D1FB
:102A00000121042000F00CF93AE02E48844201D064
:102A1000854204D10121082000F002F930E02A4863
:102A2000844201D0854204D10121102000F0F8F841
:102A300026E02648844201D0854204D1012120208D
:102A400000F0EEF81CE02248844201D0854204D117
:102A50000121402000F0E4F812E01E48844201D039
:102A6000854204D10121802000F0DAF808E01A48FC
:102A7000844201D0854203D10121080200F0D0F840
:102A800003208DF8020014208DF80300ADF80070CB
:102A900069462046FFF7FAF8ADF8008069462846F7
:102AA000FFF7F4F8012239462046FFF7CCF901225E
:102AB00041462846FFF7C7F9BDE8F88F1C01002002
:102AC00000080140000C01400010014000140140CA
:102AD00000180140001C0140002001407047000028
:102AE00070B5002100230F22C47804B3154C24686C
:102AF00004F4E064C4F5E064210AC1F10403CA40AF
:102B0000447804FA03F184781440214309010E4CFF
:102B10000678A155047804F01F050124AC4005781F
:102B20006D11AD0005F1E025C5F8004109E004781C
:102B300004F01F050124AC40044D0678761145F8D9
:102B4000264070BD0CED00E000E400E080E100E014
:102B500002490143024A1160704700000000FA0573
:102B60000CED00E02DE9F04704460D46A168206811
:102B700002F0BAFD0746D4E9001002F081FF80465A
:102B80002846A16802F07CFF8146414602F0ACFD78
:102B90000646394602F016FE60606068BDE8F087C0
:102BA0002DE9F04104460D4616462560304602F0F8
:102BB0001FFF074639464FF07E5002F003FEA0602B
:102BC00000206060BDE8F0812DE9F04104460D462B
:102BD00016462946084802F053FF804641464FF00A
:102BE0007E5002F0EFFD0746324639462046FFF799
:102BF000D7FFBDE8F0810000DB0FC940704700003F
:102C000029B1064AD2690243044BDA6104E0034A5F
:102C1000D2698243014BDA61704700000010024024
:102C200029B1064A92690243044B9A6104E0034ABF
:102C300092698243014B9A61704700000010024084
:102C400030B500210022002400232D4D6D6805F0D1
:102C50000C0121B1042905D0082923D105E0294D13
:102C6000056022E0274D05601FE0254D6D6805F4E5
:102C70007012234D6D6805F48034022505EB9242F5
:102C80001CB9214D554305600BE01D4D6D6805F4E1
:102C900000351DB11C4D5543056002E0194D5543EB
:102CA000056002E0174D056000BF00BF144D6D6860
:102CB00005F0F0010909154D6B5C0568DD404560C4
:102CC0000F4D6D6805F4E061090A104D6B5C4568B5
:102CD000DD4085600A4D6D6805F46051C90A0B4DF1
:102CE0006B5C4568DD40C560054D6D6805F440418D
:102CF000890B074D6B5CC568B5FBF3F5056130BD0D
:102D00000010024000127A0000093D00000000207F
:102D1000100000207047000000B589B00121042098
:102D2000FFF77EFF18208DF823000120ADF820006A
:102D300003208DF8220008A91E48FEF7A7FF0121F5
:102D40000846FFF75DFF4FF0804000F0C4FB002015
:102D5000ADF81A00ADF8160044F61F60ADF8180083
:102D60004720ADF8140000208DF81C0005A94FF095
:102D7000804000F025FD0121880700F00BFB01A831
:102D800000F0DCFC6020ADF804000020ADF80C0081
:102D90000120ADF806000020ADF80A0001A94FF0AF
:102DA000804000F09FFB0121880700F0F6FA09B08F
:102DB00000BD0000000801402DE9F04104460B4928
:102DC000204602F0FFFC8046094902F059FE074602
:102DD000084902F089FC064602F0D2FD85B2294678
:102DE0004FF0804000F0B4FCBDE8F08100003443B7
:102DF0000000FA440000FA4307280BDA002809DB38
:102E0000054991F900104143C1EB0111C90009B214
:102E1000024A118070470000150000205400002075
:102E200010B500F001F810BD0CB500200190009025
:102E30003348006840F480303149086000BF3048B2
:102E4000006800F4003000900198401C0190009848
:102E500018B90198B0F5A06FF1D12948006800F4C5
:102E6000003010B10120009001E000200090009897
:102E7000012843D12348006840F010002149086030
:102E80000846006820F0030008600846006840F02B
:102E9000020008601A4840681949486008464068BE
:102EA00048600846406840F48060486008464068D2
:102EB00020F47C1048600846406840F4E810486000
:102EC0000846006840F08070086000BF0C48006849
:102ED00000F000700028F9D00948406820F0030095
:102EE000074948600846406840F00200486000BF5B
:102EF0000348406800F00C000828F9D10CBD000020
:102F00000010024000200240012080F3138800BF1F
:102F100000BF0748006800F4E06006490843001D50
:102F200003490860BFF34F8F00BF00BFFEE70000FA
:102F30000CED00E00000FA051548B0F9000000288B
:102F400004DA1348B0F90000404202E01048B0F93A
:102F50000000B0F5347F1ADA0E4890F9000000281E
:102F600002DA4FF0FF3100E001210948B0F900001A
:102F7000002804DA0648B0F90000404202E00448A4
:102F8000B0F900007830414308B201490880704729
:102F900054000020150000201548B0F9000000285A
:102FA00004DA1348B0F90000404202E01048B0F9DA
:102FB000000000281ADD0F4890F90000002802DA0E
:102FC0004FF0FF3100E001210948B0F9000000286E
:102FD00004DA0748B0F90000404202E00448B0F9C2
:102FE00000007838414308B201490880704700006A
:102FF000540000201500002010B523480088401C14
:10300000052190FBF1F201FB120080B21E490880FD
:1030100008B9012000E00020012817D11B48FEF765
:1030200095FF1A4881691A48FEF763FF194908603D
:10303000164841691848FEF75CFF184908601348B4
:1030400001691748FEF755FF1649086016480088C1
:10305000A0B116480088401C142190FBF1F201FB3E
:10306000120080B21149088008B9012000E0002058
:10307000012807D100200C49088003E001F0B6FBCD
:1030800001F0D6F810BD00002A0000202001002029
:10309000780100202400002064010020200000208E
:1030A000500100201C0000206800002028000020A3
:1030B00010B50D484FF0E0214861002088610720DD
:1030C000086148170F21002807DA0A07140E074A7B
:1030D00000F00F031B1FD45403E00A07130E044A29
:1030E000135400BF10BD00003F19010018ED00E0AF
:1030F00000E400E010B51348006840F001001149F9
:10310000086008464068104908400E494860084673
:1031100000680E4908400B4908600846006820F422
:10312000802008600846406820F4FE0048604FF4A4
:103130001F008860FFF774FE4FF0006004490860CC
:1031400010BD0000001002400000FFF8FFFFF6FE77
:1031500008ED00E0F0B50C46154600220021068C73
:103160004FF6FE773E400684028B018C4FF60C76BC
:1031700032407E1C06EA03162E433243104EB04204
:103180000ED0104EB0420BD0B0F1804F08D00E4E92
:10319000B04205D00D4EB04202D00D4EB04206D125
:1031A0004FF6FD76314044F00106314305E04FF61D
:1031B000F576314044F00106314302830184F0BDCD
:1031C000002C014000340140000400400008004091
:1031D000000C0040F0B50C461546002200210026E8
:1031E000078C4FF6EF7C07EA0C070784028B018CF3
:1031F0004FF6FF7707EA041640F6FF473A404FF6CE
:10320000FF7707EA03373A434FF6FF7707EA0527C8
:103210003A43114FB8420ED0104FB8420BD0B0F124
:10322000804F08D00E4FB84205D00E4FB84202D0A2
:103230000D4FB84206D14FF6DF77394046F0100700
:10324000394305E04FF65F77394044F010073943C2
:1032500002830184F0BD0000002C014000340140D5
:103260000004004000080040000C0040F0B50C468F
:103270001546002200210026078C4FF6FF6C07EA56
:103280000C070784828B018C4FF6FF7707EA042630
:103290004FF60C773A404FF6FF7707EA03172F43B4
:1032A0003A43114FB8420ED0104FB8420BD0B0F194
:1032B000804F08D00E4FB84205D00E4FB84202D012
:1032C0000D4FB84206D14FF6FF57394046F480778C
:1032D000394305E04FF2FF57394044F480773943D2
:1032E00082830184F0BD0000002C014000340140C5
:1032F0000004004000080040000C0040F0B50C46FF
:103300001546002200210026078C4EF6FF7C07EAB6
:103310000C070784828B018C4FF6FF7707EA04368F
:1033200040F6FF473A404FF6FF7707EA05273A4352
:103330004FF6FF7707EA03373A43114FB8420ED0F2
:10334000104FB8420BD0B0F1804F08D00E4FB842AA
:1033500005D00E4FB84202D00D4FB84206D14DF6FF
:10336000FF77394046F48057394305E047F6FF5769
:10337000394044F48057394382830184F0BD000012
:10338000002C0140003401400004004000080040CF
:10339000000C0040CA430282704721B1028842F00B
:1033A0000102028004E002884FF6FE731A40028098
:1033B000704731B1B0F8442042F40042A0F84420F4
:1033C00005E0B0F84420C2F30E02A0F84420704794
:1033D000F0B50C4615461E46002100220023018947
:1033E000028B038C4FF6F877394021434FF6FC47A8
:1033F0003A4040F201173A434FF6DD773B404FF633
:10340000FF7707EA06172F433B43018102830384BA
:10341000F0BD0146888C704770B505460C462448BF
:1034200085420ED0234885420BD0B5F1804F08D09D
:103430002148854205D02148854202D02048854256
:1034400000D100E000BF208850B92389A28861889C
:103450002846FFF77FFEE188284600F084F925E042
:10346000208804280AD12389A28861882846FFF78A
:10347000B1FEE188284600F07FF917E0208808288F
:103480000AD12389A28861882846FFF7EFFEE188E8
:10349000284600F07EF909E02389A2886188284641
:1034A000FFF72CFFE188284600F07CF970BD000092
:1034B000002C01400034014000040040000800409E
:1034C000000C004000210180418001218180002109
:1034D000C1800181704701894FF6F8721140018166
:1034E0007047000070B5002400220023058C4FF6C1
:1034F000FE7635400584028C8388048B4FF68F75E9
:103500002C40B51E2C400D882C43751E2A400D8979
:103510002A434D882A43144DA8420BD0134DA8428C
:1035200008D0134DA84205D0124DA84202D0124D2A
:10353000A84213D14FF6F7752A404D892A434FF61A
:10354000FB752A408D882A434FF6FF652B404FF6C6
:10355000FF552B408D892B43CD892B4383800483DA
:10356000CD888586028470BD002C01400034014066
:1035700000400140004401400048014070B5002473
:1035800000220023058C4FF6EF7635400584028C2F
:103590008388048B48F6FF752C404FF6FF452C407E
:1035A0000D884FF6FF7606EA05252C434FF6DF75AA
:1035B0002A400D8906EA05152A434D8806EA0515B5
:1035C0002A43154DA84202D0144DA8421DD14FF6F2
:1035D0007F752A404D894FF6FF7606EA05152A4386
:1035E0004FF6BF752A408D8806EA05152A434FF627
:1035F000FF352B404FF2FF752B408D8906EA85057C
:103600002B43CD8906EA85052B4383800483CD882F
:103610000587028470BD0000002C01400034014089
:1036200070B5002400220023058C4FF6FF6635405C
:103630000584028C8388848B4FF68F752C404FF65F
:10364000FC752C400D882C434FF6FF552A400D8900
:103650004FF6FF7606EA05252A434D8806EA05253A
:103660002A43154DA84202D0144DA8421DD14FF255
:10367000FF752A404D894FF6FF7606EA05252A4355
:103680004FF6FF352A408D8806EA05252A434EF677
:10369000FF752B404DF6FF752B408D8906EA051509
:1036A0002B43CD8906EA05152B4383808483CD887F
:1036B0008587028470BD0000002C01400034014069
:1036C00070B5002200230024058C4EF6FF763540AD
:1036D0000584038C8488828B48F6FF752A404FF658
:1036E000FF452A400D884FF6FF7606EA05252A4356
:1036F0004DF6FF752B400D8906EA05352B434D88A5
:1037000006EA05352B430B4DA84202D00A4DA842CC
:1037100008D14BF6FF752C408D894FF6FF7606EAEF
:1037200085152C4384808283CD88A0F84050038483
:1037300070BD0000002C01400034014000210180D8
:1037400041808180C180018141818181C181704737
:10375000818670470187704781877047A0F84010C5
:10376000704781847047028B4FF6F3731A400283CF
:10377000028B0A4302837047028B4FF2FF331A40D9
:103780000283028B4FF6FF7303EA01231A4302837D
:103790007047828B4FF6F3731A408283828B0A4301
:1037A00082837047828B4FF2FF331A408283828B71
:1037B0004FF6FF7303EA01231A4382837047000028
:1037C000002202881D4B98420ED01D4B98420BD010
:1037D000B0F1804F08D01B4B984205D01A4B98424D
:1037E00002D01A4B984204D14FF68F731A404B887F
:1037F0001A43174B984207D0164B984204D04FF605
:10380000FF431A40CB881A4302808B8883850B883C
:1038100003850A4B98420BD0094B984208D00E4BB7
:10382000984205D00D4B984202D00D4B984201D1E1
:103830000B7A03860123838270470000002C01402D
:10384000003401400004004000080040000C00402B
:1038500000100040001400400040014000440140BE
:103860000048014010B540F225511D4800F0FDF818
:10387000012834D11B49087000F0B2F91A490880B8
:1038800008460088402806D11848007818B9012059
:10389000164908701EE01548007801281AD1124810
:1038A00000880D280BD10220104908700021104813
:1038B000104A1288815400200E4908800AE00A4804
:1038C000007841B20B4802880088401C094B1880E0
:1038D0000748815440F22551014800F09EF810BD80
:1038E000004800402E000020300000202C00002066
:1038F0000C0200203200002000B587B00121082012
:10390000FFF78EF918208DF81B000020ADF8180085
:103910004FF48060ADF8180003208DF81A0006A956
:103920002448FEF7B3F948208DF81B000020ADF8BD
:1039300018004FF40060ADF8180003208DF81A004D
:1039400006A91C48FEF7A2F901218804FFF758F9DF
:103950004FF4165002900020ADF814000C20ADF882
:1039600012000020ADF81000ADF80E00ADF80C000C
:1039700002A9114800F0C8F8012240F225510E4872
:1039800000F09DF84FF4A060FFF7E2F827208DF8D3
:10399000040000208DF805008DF8060001208DF848
:1039A000070001A8FFF79CF80121034800F044F844
:1039B00007B000BD000C01400048004010B50446AF
:1039C0002146054800F021F900BF8021024800F09F
:1039D0003FF80028F9D010BD0048004070B50446FB
:1039E000002503E0605DFFF7E9FF6D1C605D0028C6
:1039F000F8D170BD0FB400B59BB01DA80190642133
:103A000002A8019B1C9AFCF735FC02A8FFF7E6FF11
:103A1000002001901BB05DF814FB10B500220023BC
:103A200040F66A14A14200D100BF0A12012494405A
:103A3000A3B2DC43048010BD21B1828942F400525C
:103A4000828104E082894DF6FF731A4082817047BB
:103A500002460020B1F5007F00D100BF13880B4063
:103A60000BB1012000E00020704770B50246002431
:103A700000230025002040F66A16B14200D100BFA5
:103A8000C1F3421501F01F03012606FA03F3012DCD
:103A900002D19689334006E0022D02D1168A3340C6
:103AA00001E0968A33400C12012606FA04F41688C7
:103AB000344013B10CB1012000E0002070BDF0B51E
:103AC0000346002400260025002040F66A17B9426C
:103AD00000D100BF1846C1F3421401F01F060127B0
:103AE00007FA06F5012C01D10C3004E0022C01D1BB
:103AF000103000E014301AB107682F43076002E06D
:103B00000768AF430760F0BD2DE9F04786B0054672
:103B10000E460024A24600BFA1460027B08900B18E
:103B200000BF2F462C8A4CF6FF700440F0880443F7
:103B30002C82AC894EF6F3100440B08831890843DA
:103B4000718908430443AC81AC8A4FF6FF400440BE
:103B5000B0890443AC8201A8FFF772F81F4887427E
:103B600002D1DDF810A001E0DDF80CA0A88900F476
:103B7000004040B10AEBCA0000EB0A10316849006E
:103B8000B0FBF1F807E00AEBCA0000EB0A1031685D
:103B90008900B0FBF1F86420B8FBF0F004012009C3
:103BA000642101FB1089A88900F4004040B1322053
:103BB00000EBC900B0FBF1F000F00700044308E09F
:103BC000322000EB09106421B0FBF1F000F00F008F
:103BD00004432C8106B0BDE8F087000000380140A6
:103BE00010B520210548FFF733FF012804D1034811
:103BF00000F006F8C0B210BD0020FCE7004800400D
:103C000001468888C0F308007047C1F3080282802B
:103C1000704700BFFEE710B5012000F0D9FA01207F
:103C200000F0AAFA00F0BEFA0446002000F0A4FA60
:103C3000204610BD70B50025012000F0C9FA00240F
:103C40000EE0012000F098FA00F0ACFA012802D151
:103C5000802020410543002000F08EFA601CC4B291
:103C6000082CEEDB284670BD10B5012000F0B0FA3C
:103C7000012000F081FA002000F0AAFA002000F0F4
:103C80007BFA10BD10B5002000F0A2FA012000F070
:103C900073FA012000F09CFA10BD10B504462046CE
:103CA00000F096FA012000F067FA002000F064FAB4
:103CB00010BD70B5054600240DE08021214101EAC8
:103CC000050000F085FA012000F056FA002000F00F
:103CD00053FA601CC4B2082CEFDB70BD490050EAF7
:103CE000C12018BF04204A0D18BF40F0010040F267
:103CF000FF72B2EB515F08BF40F00200012808BF1D
:103D0000052070472DE9F0414F1E00EBC701044626
:103D1000D1E9000115461E4637F006020DD02A46AD
:103D2000334601F0A5F97F1E04EBC703D3E9002356
:103D300000F036FF37F00602F1D1022F25D0042F14
:103D400013D0062F18BFBDE8F0812A46334601F094
:103D50008FF9D4E90A2300F023FF2A46334601F005
:103D600087F9D4E9082300F01BFF2A46334601F007
:103D70007FF9D4E9062300F013FF2A46334601F009
:103D800077F9D4E9042300F00BFF2A46334601F00B
:103D90006FF9D4E9022300F003FF2A46334601F00D
:103DA00067F9D4E90023BDE8F04100F0F9BE012233
:103DB00002F019B800F0F4BE024A0020110702F028
:103DC00012B8000001FDFFFF30380A2801D201209F
:103DD00070470020704700002DE9F84F04460D465B
:103DE00021F0004000917349814211DC7249884200
:103DF00001DC06D12CB120462946BDE8F84FFFF77B
:103E0000D6BF6E48002DCCBF6D496E49BDE8F88F16
:103E10006D49814211DD6D498142D8BF4FF0FF36B7
:103E20006DDD20462946FFF759FF042808BFFFF73C
:103E3000C3FF20462946BDE8F88F6549654F25F048
:103E40000045814233DD6449814219DD0026324656
:103E50004FF080432046294600F0A2FE80468A4665
:103E600001222046294601F0BEFF00223B4601F018
:103E700025FB4246534600F04FFF04460D463EE008
:103E800001260022BA463B462046294600F088FE1D
:103E900080460F46002253462046294601F00EFB7D
:103EA00042463B4600F038FF04460D4627E04B49AA
:103EB00081421BDDDFF828A102260022534620465E
:103EC000294601F0D5F800223B4600F069FE804605
:103ED0000F46002253462046294601F0EFFA42469B
:103EE0003B4600F019FF04460D4608E00326224633
:103EF0002B4600203B4900F00FFF04460D462246AA
:103F00002B461046194601F0B3F88B46824602460E
:103F10000B4601F0ADF807460246334888460B468B
:103F200006217844FFF7EEFE52465B4601F0A0F80A
:103F300082462E488B463A46434605217844FFF791
:103F4000E1FE3A46434601F093F802460B46002E46
:103F5000504659460CDA00F023FE22462B4601F06B
:103F600087F801B022462B46BDE8F04F01F0B4B906
:103F700000F016FE22462B4601F07AF81C4A7A44DD
:103F800002EBC603D3E9002301F098FA22462B4640
:103F900001F094FA174A7A4402EBC603D3E90023EE
:103FA00001F09AF9009A002AB8BF81F00041BDE8FB
:103FB000F88F0000000010440000F07F182D4454DA
:103FC000FB21F93FFB21F9BF0000DC3F0000203E50
:103FD0000000F33F0000F03F0000E63F0080034098
:103FE0000000F83F0000F0BFFA1F0000B81F0000FB
:103FF000561F00001E1F00002DE9F04D9446CCF125
:10400000000423F000464CEA0404524F46EAD474FC
:104010009A46884621F00042BC4206D8454240EA12
:10402000050442EAD474BC4204D9BDE8F04D6246AE
:10403000FFF7C0BEAAF14055A5F17F6555EA0C0413
:104040000BD0022404EAAA74434DDFF810E144EADD
:10405000D87452EA000B04D00CE0BDE8F04DFFF735
:10406000BBBE002C14BF012CBDE8F08D022C30D05B
:10407000032C32D056EA0C0B0AD0BE4220D1BA42F1
:1040800009D126F0804622F080423346114617E0DF
:1040900000291ADB25E0DFF8C8B0FB44002C04BF80
:1040A000DBE90001BDE8F08D012C02BFDBE9000176
:1040B00081F00041BDE8F08D022C0AD0032C0CD019
:1040C000BA4212D1B8F1000F0BDA23482549BDE8F6
:1040D000F08D28462449BDE8F08D28467146BDE89C
:1040E000F08D1D482149BDE8F08D921B12153C2A28
:1040F000C4BF19481D490EDCBAF1000FBEBF12F152
:104100003C0F0020014606DB624600F005FE21F070
:104110000041FFF761FE002C08BFBDE8F08D012CC7
:1041200004BF81F00041BDE8F08D114A114B022C13
:1041300007D001F0C3F92A46BDE8F04D0A4B01F063
:10414000BDB901F0BBF92A46BDE8F04D064B01F0C0
:10415000C3B800000000F07F182D4454FB2109C0B3
:10416000B21E0000FB21F9BFFB210940FB21F93FF2
:10417000075C143326A6A13C10B50446084A126811
:104180001189074A126810682246FDF75CFE00207C
:1041900000E0401C02490968C9898142F9DC10BD70
:1041A0001C01002010B5094A12685189074A12689B
:1041B0005068FDF73FFE0446002000E0401C034924
:1041C0000968C9898142F9DC204610BD1C01002024
:1041D00010B50446084A12685189074A12685068A7
:1041E0002246FDF730FE002000E0401C024909682D
:1041F000C9898142F9DC10BD1C01002010B50446BC
:10420000002C09DA00210948FFF7A2FA604281B2C6
:104210000648FFF79FFA07E0A1B20448FFF798FAB3
:1042200000210248FFF796FA10BD0000002C014063
:104230002DE9FC5F8D480068401C142190FBF1F2D1
:1042400001FB12008949086008B9012000E0002044
:1042500001287DD18648B0F90000C0EB001078211C
:1042600090FBF1F083490968401A834908600846C9
:10427000006800F0A9FE0646804A814B00F0F8FE77
:10428000044600F05BFC7F4908607B48006800F052
:104290009BFE8046794A7C4B00F0EAFE82468B46C4
:1042A0007A48006801F0F4F9064652465B4600F091
:1042B00077FC044600F042FC744908607449734876
:1042C000006801F0A9FB02D2714870490860714989
:1042D0006E48006801F0A0FC02D26E486B4908608D
:1042E0006D48006801F0D4F904464FF066326B4B1C
:1042F00000F0BEFE804689465F490968684A126838
:10430000881A00F061FE0646664A674B00F0B0FE70
:1043100004465A4A5A4B00F0ABFE824642464B4690
:1043200000F03EFCCDE9000100F008FC5A490860AD
:10433000504800685D49086000204E4908605348B5
:1043400001685048006801F0CFF90646524800E085
:104350003AE00168304601F0C7F905464FF0824166
:1043600001F08EFB044601F0EFFA5149086008465F
:10437000006810F5347F01DA4E4808604C48006848
:10438000B0F5347F03DD4FF4347049490860384894
:10439000008880B945480068002803DA434800686F
:1043A000404201E041480068322804DA00203749E1
:1043B00008603F4908603E48008800B2FFF71EFFD2
:1043C0002D48006836490860FDF754FD2949096801
:1043D000084428490860FDF74DFD3749098808441D
:1043E00000B23549088035480068401C33490860F0
:1043F0003148B0F9000040F6C51188422FDA2E4846
:10440000B0F9000040F6BB11884228DD2B48006857
:1044100000F0DAFD80462A4A2A4B00F029FE0646C3
:104420000022294B00F024FECDE900012248B0F91A
:10443000000000F0C9FD0646244A254B00F018FE96
:104440000446DDE9002300F067FC824600F076FBBD
:104450002049086000201949086017490880002198
:104460001D48FFF77EF9BDE8FC9F00009400002086
:10447000540000209C0000208C0000209A999999FB
:104480009999B93F740000209999A93F6C000020C8
:104490000000F0C20000F042880000206666E63F9F
:1044A00090000020343333333333D33F580000209F
:1044B0005C00002030FDFFFFA000002098000020DD
:1044C000FCA9F1D24D62503F0080A340DC4B1AA3FF
:1044D000750C354080000020000800401CB57F4866
:1044E0004FF07E537E4A7F4900907F48FDF7FAFCEB
:1044F0007A484FF07E537A4A7A4900907B48FDF71C
:10450000F1FC76484FF07E53754A76490090784822
:10451000FDF7E8FCFFF7F0F9012202217548FEF7EC
:1045200085F8FEF76FF9FEF7C3FDFEF7F5FB72485D
:10453000FEF742FCFEF7E8F9002400BF6FA0FFF78A
:1045400059FAC9E0FDF784FC012824D1FDF78EFC5F
:1045500004467048C1692046FBF7F2FE58B96EA0C8
:10456000FFF748FA002000E0401C42F21071884238
:10457000FADBFEF7C9FC674881692046FBF7E0FEDD
:1045800050B968A0FFF736FA684800780128DCD1F6
:104590000020FDF743FB8DE05E4841692046FBF7B4
:1045A000CFFE60B962A0FFF725FA604890F90000DD
:1045B000401C00287ED10120FDF730FB7AE05548F1
:1045C00001682046FBF7BCFE28B95BA0FFF712FA92
:1045D000FEF7B2FC6EE04F4841682046FBF7B0FEA4
:1045E00028B95AA0FFF706FAFEF7D6FC62E0494860
:1045F000C1682046FBF7A4FE30B95AA0FFF7FAF9CC
:1046000000205D49088055E04248052201692046A6
:10461000FBF74AFEC0BBFDF729FC0446E0792E28D3
:104620000FD1A17962790A2303FB0211A1F504706D
:1046300001F0C6F90546514901F01FFB50490860D9
:1046400013E0617964225143A2790A2303FB02112A
:10465000E2791144A1F5A050D03801F0B1F9054636
:10466000464901F00AFB464908604548006801F0E8
:104670000FF805462A460B4642A0FFF7BBF9404813
:104680000068FEF799FB15E0FFE7224806228168E3
:104690002046FBF709FE68B9FDF7E8FB0446A1795F
:1046A000303948B2FEF7A8FB3348B0F900103AA001
:1046B000FFF7A0F93C48006800F0EAFF074688468B
:1046C0003A48006800F0E4FF05462A460B4638A049
:1046D000CDE90078FFF78EF934E700000000C8420A
:1046E000CDCCCC3D0AD7233C5001002064010020F2
:1046F00078010020000C01400000B442457665724C
:10470000797468696E6720697320726561647921C4
:104710000D0A0000340000205265736574210D0AF3
:1047200000000000446F776E210D0A001500002084
:10473000557021210D0A0000537065656452616E49
:104740006B20616464210D0A0000000053706565F0
:104750006452616E6B206465636C696E65210D0A3D
:1047600000000000537065656452616E6B207374C5
:104770006F70210D0A000000540000200000344337
:1047800018000020526F7461746520746F202566D4
:1047900020646567210D0A0053455420256420528A
:1047A000616E6B210D0A0000800000207C0000205B
:1047B00025662C25660D0A0010B50446002C09DA82
:1047C00000210948FEF7C8FF604281B20648FEF7A3
:1047D000C5FF07E0A1B20448FEF7BEFF0021024872
:1047E000FEF7BCFF10BD0000002C01402DE9FC5F6E
:1047F0008D480068401C142190FBF1F201FB12006F
:104800008949086008B9012000E0002001287DD115
:104810008648B0F90000C0EB0010782190FBF1F061
:1048200083490968401A834908600846006800F017
:10483000CBFB0646804A814B00F01AFC044600F090
:104840007DF97F4908607B48006800F0BDFB804629
:10485000794A7C4B00F00CFC82468B467A48006813
:1048600000F016FF064652465B4600F099F90446F2
:1048700000F064F97449086074497348006801F0F5
:10488000CBF802D271487049086071496E480068DF
:1048900001F0C2F902D26E486B4908606D480068A9
:1048A00000F0F6FE04464FF066326B4B00F0E0FB82
:1048B000804689465F490968684A1268881A00F08C
:1048C00083FB0646664A674B00F0D2FB04465A4A11
:1048D0005A4B00F0CDFB824642464B4600F060F951
:1048E000CDE9000100F02AF95A49086050480068F3
:1048F0005D49086000204E490860534801685048EF
:10490000006800F0F1FE0646524800E03AE0016817
:10491000304600F0E9FE05464FF0824101F0B0F864
:10492000044601F011F8514908600846006810F586
:10493000347F01DA4E4808604C480068B0F5347F97
:1049400003DD4FF43470494908603848008880B965
:1049500045480068002803DA43480068404201E007
:1049600041480068322804DA0020374908603F498E
:1049700008603E48008800B2FFF71EFF2D4800681F
:1049800036490860FDF77EFA294909680844284934
:104990000860FDF777FA37490988084400B23549BD
:1049A000088035480068401C334908603148B0F938
:1049B000000040F6C51188422FDA2E48B0F90000F9
:1049C00040F6BB11884228DD2B48006800F0FCFA55
:1049D00080462A4A2A4B00F04BFB06460022294B10
:1049E00000F046FBCDE900012248B0F9000000F0DC
:1049F000EBFA0646244A254B00F03AFB0446DDE973
:104A0000002300F089F9824600F098F820490860F8
:104A10000020194908601749088000211D48FEF749
:104A2000A0FEBDE8FC9F0000B00000205400002064
:104A3000B8000020A80000209A9999999999B93F47
:104A4000780000209999A93F700000200000F0C272
:104A50000000F042A40000206666E63FAC000020A3
:104A6000343333333333D33F6000002064000020FD
:104A700030FDFFFFBC000020B4000020FCA9F1D2F3
:104A80004D62503F0080A340DC4B1AA3750C3540AB
:104A90007C000020000400402DE9F04106460F464E
:104AA00000F026FC041E0D4618BF0120284320F00C
:104AB0000040C0F17F6000F1E040C00F0ED0301C1C
:104AC00018BF0120384320F00040C0F17F6000F1A2
:104AD000E040C00F04BF0120FBF77AFC20462946C6
:104AE000BDE8F08110B500290AD00878002807D069
:104AF00005487844FBF724FC002801D0002010BDB5
:104B00000248784410BD00007E15000076150000B4
:104B100010B500290AD00878002807D00548784445
:104B2000FBF70EFC002801D0002010BD024878449D
:104B300010BD00006E1500006615000021F0004257
:104B4000A2F16052B2F5801F01F0004328BFD2F1FC
:104B50007F6C0BD95FEA001C43EAC20242EB507043
:104B600018BF704728BF20F001007047B2F5801FC2
:104B7000BCBF184670474FEA410C1CF5001F02D21B
:104B8000084601F044B870B500F01CFB0000008935
:104B9000FFF7F6BF4FF00040A0F58000704700001F
:104BA00010B591EA030F48BF83F0004300F18E84F3
:104BB000841A71EB030C05D2121943EB0C03001B92
:104BC00061EB0C01DFF824E14FEA1154A4EB135C14
:104BD0001EEA430F18BF9EEA445F73D023EA0E0318
:104BE000DCF1200E21EA045143F4801332D322FA7F
:104BF0000CFE10EB0E0023FA0CFE41EB0E01CCF183
:104C0000200E03FA0EFE10EB0E0051F10001B1F57B
:104C1000801FCCF1200E32D201EB045112FA0EF2B9
:104C2000BDE8104058BF7047401C38BF5FEA4202E1
:104C300018BF7047002814BF20F0010041F10001A7
:104C40004FEA410313F5001F38BF7047A1F1C0417F
:104C500000F006BB012A43EB0302ACF1200CDCF1AF
:104C60001F0E32BF4FF0000E23FA0CF310EB0300BF
:104C700041EB0451B4EB115FD0D0A1EB045101F52D
:104C8000801149085FEA300001EB04510ED350F166
:104C9000000038BF12FA0EFE08D1BDE81040C9E787
:104CA000401C38BF5FEA4202CAD1C3E7BDE81040EA
:104CB0004FEA410313F5001F38BF7047A1F1C0410F
:104CC00000F0CEBA9EEA445F08D011EA5E0FBDE85C
:104CD000104004BF01F0004100207047BDE81040C3
:104CE00070B500F06FFA00BF64FBBE3E0000E0FF4D
:104CF00002494FF0000001F044B800BF0000F87F07
:104D0000491058BFC1F140415B1058BFC3F1404347
:104D10008B42EFF3008070472DE9C04130B4DFF8DB
:104D2000A0C23CEA111418BF3CEA131400F0EC8056
:104D300081EA03051CEA111444EAD57418BF1CEA81
:104D4000131500F0C780A4EB05044FF0004545EAB9
:104D5000C12145EAC32341EA505143EA525304F1C9
:104D60007F74994204F500344FEAC0204FEAC22212
:104D700008BF904200F09C804FEA13650FF2401686
:104D8000765D4FEA134506FB05F7C7F1807706FB12
:104D900007F74FEAD737A7FB03687642C8F5803894
:104DA000A7FB06CE38BFA8F1010807FB08E64FF0C5
:104DB000000EA6FB028CE6FB03CEDCF1000CCEF16C
:104DC000004E38BFAEF1010EA6FB0C584FF00007A5
:104DD0004FF00005E6FB0E87A1FB08C6A0FB07CE3F
:104DE00016EB0E0645F10005E1FB076515F1E04EF7
:104DF0007EBFA4F580345FEA46066D4116F1800758
:104E000045F100054FEA17274FEA066647EA0567AE
:104E1000A6F1DE46B6F1805F4FEA15251FD9384668
:104E200024F0010C05EBC471BCF1FE6F01EB0C1119
:104E300002D8F0BCBDE8008124425CBF01F5801EB1
:104E40009EEAC47F02D4F0BCBDE80081244238D47D
:104E5000F0BCA1F1C041BDE8004100F001BA4FEA49
:104E6000D22242EA43524FEAD323A7FB02864FEAFB
:104E7000D02040EA415007FB03661EEA0E0F4FEABE
:104E8000D12105FB026658BFA6EB0056B6EB0056D3
:104E90004FEA520E4EEAC37E18EB0E0E56EB530E3F
:104EA000BDD518EB02085E417F1C55F10005B6E741
:104EB0004FF480154FF000074FF000064FF0000848
:104EC000ADE7F0BC4FF0000001F1C04101F000413E
:104ED000BDE8008111EA0C1F0CEA131500D00CE0AC
:104EE00013EA0C1F00F025804FF00000F0BC81EAAF
:104EF000030101F00041BDE80081F0BCBDE80041C4
:104F000081EA030100F0ACB9F0BCBDE8004170B526
:104F100000F058F9097EFC3E00F007B881EA030171
:104F20004FF0000001F00041704781EA030100F0FA
:104F300097B9F0BCBDE800414FF00000214970472F
:104F4000FFFDFBF9F7F5F4F2F0EEEDEBE9E8E6E44E
:104F5000E3E1E0DEDDDBDAD8D7D5D4D3D1D0CFCDD5
:104F6000CCCBCAC8C7C6C5C4C2C1C0BFBEBDBCBB0E
:104F7000BAB9B8B7B6B5B4B3B2B1B0AFAEADACAB09
:104F8000AAA9A8A8A7A6A5A4A3A3A2A1A09F9F9EE3
:104F90009D9C9C9B9A999998979796959594939395
:104FA000929191908F8F8E8E8D8C8C8B8B8A89892C
:104FB00088888787868585848483838282818180AF
:104FC0000000FF070000F87F10F0004248BF404299
:104FD000B0FA80F310FA03F10AD0C3F11D0303F510
:104FE00080634FEA415002EB035202EBD12170473C
:104FF0004FF000007047000051EA030C17D41CF575
:10500000801F58BFBCF5801F00F10680994218BF71
:10501000704708BF9042704707D711F5801F58BFEF
:1050200013F5801F19D499427047894270471CF5C7
:10503000801F08D5BCF5801FF7D58B4218BF70477D
:1050400008BF824270474FF4001C1CEB410F38BF71
:105050001CEB430F01D28B42704770B500F0B2F8E1
:10506000922449004FF000514FF08053FFF748BEA3
:10507000DFF848C170B51CEA111E1EBF1CEA1315EB
:105080009EEA0C0F95EA0C0F00F06F8081EA030492
:1050900023EA4C134EEAD47E21EA4C1141F48011EC
:1050A00043F48013AE44A1FB024CA0FB0365AEF1B8
:1050B0007F7E361955EB0C05A1FB034C4CF1000328
:1050C000A0FB021C16EB0C06654153F100030942DC
:1050D00018BF46F0010613F4007F0BD14FEA0331ED
:1050E0004FEA0530340341EA155140EA16506FF09B
:1050F00003020AE04FEAC3214FEAC520F40241EA65
:10510000555140EA56506FF0020202EB2E4201EB7D
:10511000025585EACE710AD05FEA440C18BF24F02C
:10512000004450F1000041F1000120EAD47040F247
:10513000FE7C624500D270BDA84214BF4FF080448F
:105140004FF04044002E08BF0024BEF1806FA8BF7E
:10515000A1F1C041BDE8704080F282804FF00000B4
:1051600001F1C04101F0004170479EEA0C0F0CEACA
:10517000131518BF95EA0C0F06D04FF0000081EA16
:10518000030E0EF0004170BD00F01CF88900013ED6
:1051900000F007B800F009B84FEA430C5FEA5C5C26
:1051A00008D081EA030100F05BB84FEA410C5FEAE6
:1051B0005C5CF6D14FF00000014970470000FF072A
:1051C0000000F87F0EF1020E2EF0030E5EF8046B65
:1051D000364205D4012A43EB030515F5001F12D80A
:1051E000012841EB010C1CF5001F0CD80ED14FEA31
:1051F000D17C15F5001F0CEB4C0C0CF1020C08BF18
:105200004CEBD37C04E04FF0080C01E04FEAD37C78
:105210000CEB4C0526FA05F606F00706B6F1040C71
:1052200006D20EEB860CBDE870404CF0010C6047D6
:10523000DFE80CF0090B02024FF000414FF00000D4
:10524000A1F5002170BD19461046012851EB01045B
:1052500018BFD4F5001484BF002001F0004170BDD8
:105260000808A0F500114FEA3101704753EA010C1C
:1052700017D41CF5801F58BFBCF5801F00F10680B5
:105280008B4218BF704708BF8242704707D713F59B
:10529000801F58BF11F5801F19D48B4270479B4265
:1052A00070471CF5801F08D5BCF5801FF7D59942C3
:1052B00018BF704708BF904270474FF4001C1CEBAA
:1052C000430F38BF1CEB410F01D2994270470FB416
:1052D0000CBC03BCFFF7C1BE91EA030F10B581F00F
:1052E00000413FF565AC83F0004300F0EFB80000EB
:1052F0002DE9F04101F5801CBCF5001FC0F2C38010
:105300004FEA115C21EA0C510CF1FD0C41F48011C3
:105310005FEA5C0C0CF5C07C01D3400049413DA420
:10532000890241EA905187028E0E0A0CA45D04FBAB
:1053300004F602FB06F6C6F14046A4FB0662F60D33
:1053400046EA422606FB06F4A4FB01235242C3F1BF
:10535000404338BF5B1EA6FB02420024E6FB032449
:10536000D20B42EA4446A6FB0623A1FB02E2A3FBC2
:1053700007E4A4184FF0000252F10002E3FB0142DF
:105380006442C2F1404E38BFAEF1010EA6FB0423C9
:105390004FF00002E6FB0E32A2FB03464FF0000482
:1053A000B61954F10004E2FB0264A1FB06E6A4FB7B
:1053B00007E816EB08064FF0000858F10008E4FB78
:1053C00001687642C8F1405838BFA8F10108A2FB35
:1053D00006E4A3FB08E52D194FF0000454F1000486
:1053E000E2FB0854A1FB05E6A7FB04E818EB06085E
:1053F0004FF0000656F10006E1FB048618F1200587
:1054000056F10006A809A8F11B08B10908F03F08E9
:10541000B8F10A0F40EA86601CD901EB0C51BDE8D7
:10542000F08100BFFCF5EEE8E2DDD8D3CFCBC7C3F7
:10543000C0BDB9B6B4B1AEACA9A7A5A3A19F9D9BB1
:105440009A9896959392908F8D8C8B898887868574
:1054500084838281A0FB006800FB01F208EB420814
:10546000B8EB872807D5341858EB0104D5D5401C74
:1054700051F10001D1E7341A78EB0104CDD4401E7C
:1054800071F10001C9E75FEA4C0C5FEA9C5C0DD149
:1054900005D34FF0000001F00041BDE8F081BDE808
:1054A000F04170B5FFF78EFE6DDBFFBEBDE8F04149
:1054B0004FF00000004970470000F87F10B591EAF6
:1054C000030F48BF83F000433FF572AB841A71EBC2
:1054D000030C07D212198CF0004C43EB0C03001B99
:1054E00061EB0C01DFF8A4E14FEA1154A4EB135C6B
:1054F0001EEA430F18BF9EEA445F00F0B08023EA23
:105500006E03524221EA0451C3EB6E0338BF5B1EA7
:10551000DCF1200E25D322FA0CFE10EB0E0043FA2C
:105520000CFE41EB0E01CCF1200E03FA0EFE10EB47
:105530000E0051F10001CCF1200E29D412FA0EF226
:1055400001EB0451BDE8104058BF7047401C1CBF20
:10555000B2F1004F704700280CBF491C20F0010039
:10556000704712EB020E43EB030218BF4FF0010E1F
:105570004EEA4202ACF1200CDCF11E0E54D943FA83
:105580000CFE10EB0E0051F1FF31CCF11E0ED5D503
:105590000EF1010E12FA0EFE404141EB010101EB4A
:1055A000445C5FEA5C5C10D910EBDE7001EB0451E7
:1055B00038BFBEF1004FBDE8104018BF704700284B
:1055C0000CBF491C20F00100704730D24FEAD42CA8
:1055D00011F5001124F400641BD0B1FA81F20B3AEA
:1055E000A41AA41ED2F12003914030FA03F3194308
:1055F000904001EBCC71002C01EB0451BDE8104050
:10560000A8BF704701F1C0414FF0000001F0004118
:105610007047B0FA80F310FA03F100D110BDE41A1C
:10562000173C4805C90AE4E701EB045110BD4910D5
:1056300001EB0451BDE810404FEA300002E04FF0AA
:10564000000170474A0008BF0042F8D0B2F5001FC1
:1056500028BF704701F000414FF0000070479EEAFC
:10566000445F07D011EA5E0FBDE8104004BF00217F
:1056700000207047BDE8104070B5FFF7A3FD00BFE4
:1056800040DFF63E83F00041104670470000E0FF27
:1056900043004FEAD30C4FEA3C0C43401FBF400786
:1056A0000CF1605113F0FE4F70471CF0006F03D1F6
:1056B00000200CF0004170470CF0004343EA5070AA
:1056C00010B540EACC0000F05CFA00BF0000009288
:1056D0004FEA0001FFF7C4BD4FF000414FF000005A
:1056E000A1F500217047000090EA010F48BF81F04A
:1056F000004100F1D482421A3CBF801A89184FEA57
:10570000D0524FF07F4C1CEA410FA2EBD15318BF8F
:105710009CEA026F00F03B804FF0004C4CEA002006
:105720004CEA012121FA03FC10EB0C0C1ED202F111
:10573000FF325FEA1C2040EBC25038BF70471CF0BC
:105740007F0F4FEA400C18BFBCF17F4F38BF704746
:10575000C3F12003994008BF20F00100BCF17F4F46
:1057600038BF7047A0F1C04000F051BA4FEA3C008A
:10577000000A40EBC25028BF1CF0FF0F4FEA400C5C
:10578000E6D018BFBCF17F4F38BF7047EAE79CEA0C
:10579000026F05D010EA5C0F08BF00F000407047B0
:1057A00010B500F0EEF900BF64FBBE3E401058BFDC
:1057B000C0F14040491058BFC1F140418142EFF370
:1057C000008070474FF47F0C1CEAD0121EBF1CEA09
:1057D000D11392EA0C0F93EA0C0F00F0858090EA47
:1057E000010F48BF42F4807240F4000C41F4000005
:1057F0002CF07F4120F07F4000B58142A2EB0302F4
:105800000FF2081CACEB504EC0F100009EF800E017
:105810004FEA4E0E00FB0EFC38BF49004FEA2C1C2D
:1058200002F5FA020CFB0EF34FEACE1E4FEA112CE2
:105830004FEAC1210EEB635E42EB22420EFB0CFCF1
:105840004FEA1C5300FB03114FEA112C4FEA0131C0
:105850000EFB0CFC4FEADC4C00FB0C11C14228BFD4
:1058600009184CEB03335DF804EB10EB410143EBFB
:10587000C250B2F57C0F38BF704729D512F0F00F37
:105880001CBF00F1C04000F00040704700818283DF
:105890008485868788898B8C8D8E8F91929395963F
:1058A00097999A9C9D9FA0A2A3A5A7A8AAACAEB0C9
:1058B000B2B3B5B7B9BCBEC0C2C5C7C9CCCED1D4CE
:1058C000D7D9DCDFE2E6E9ECF0F3F7FAFE000000FE
:1058D0004FEA400C0CF1807CBCF17E4F28BF704732
:1058E000B0F1C04000F093B990EA010F0CEAD11377
:1058F00048BF42F48072624538BF634507D213F453
:105900007F0F16D080EA010000F00040704710B50C
:1059100000F037F9097EFC3E00F005B880EA01008E
:1059200000F00040704780EA010000F0004000F005
:105930006EB912F47F0F04BF0248704780EA01007D
:1059400000F065B90000C07F41000B0ED3F19E024C
:1059500008D950F400034FEA032323FA02F048BFAA
:105960004042704710B500F00CF900BF4992248006
:10597000002070476FF0004282EA2000704700006C
:10598000C10DD1F19E0206DB4FEA002343F0004334
:1059900023FA02F07047004207D54FEA4001B1F107
:1059A000FE4F02D24FF00000704710B500F0E9F84A
:1059B00049922480002070476FEA20007047000061
:1059C00010F0004148BF4042B0FA80F310FA03F2F1
:1059D000C3F19D030BD051EAC35101EB12205306D2
:1059E00038BF704700F1010008BF20F00100704788
:1059F000B0FA80F310FA03F2C3F19D030AD0D9057F
:105A000001EB1220530638BF704700F1010008BFB8
:105A100020F001007047000050EA010C00F11380F3
:105A20001CF5000F58BFBCF5000F01D48842704729
:105A300007D710F5000F58BF11F5000F15D4884295
:105A40007047894270471CF5000F04D5BCF5000F64
:105A5000F7D5814270474FF0807C1CEB400F38BF78
:105A60001CEB410F01D28142704710B500F089F85C
:105A7000922449004FF000504FF08051FFF796BE3E
:105A80004FF47F0C1CEAD0121EBF1CEAD11392EA1D
:105A90000C0F93EA0C0F00F0478090EA010F48BF0B
:105AA00042F480724FF0004C4CEA00204CEA012195
:105AB00002EB0302A0FB0113A2F50002002918BFAC
:105AC00043F001035B0028BF4FEA330342EB22425D
:105AD0005FEA132C4CEBC2502EBFBCEB436FB2F508
