:020000040800F2
:10000000680A002075020008952B0008E91E000808
:10001000B92800080B1C000833410008000000004C
:10002000000000000000000000000000FD3000089B
:100030000F1C000800000000E52F0008AD34000888
:100040008F0200088F0200088F0200088F0200084C
:100050008F0200088F0200088F0200088F0200083C
:100060008F0200088F0200088F0200088F0200082C
:100070008F0200088F0200088F0200088F0200081C
:100080008F0200088F0200088F0200088F0200080C
:100090008F0200088F0200088F0200088F020008FC
:1000A0008F0200088F0200088F0200088F020008EC
:1000B0008F0200088F0200088F0200088F020008DC
:1000C0008F0200088F0200088F0200088F020008CC
:1000D0008F0200088F0200088F020008853D00088B
:1000E0008F0200088F0200088F02000800F002F85B
:1000F00000F0B0F80AA090E8000C82448344AAF112
:100100000107DA4501D100F0A5F8AFF2090EBAE80F
:100110000F0013F0010F18BFFB1A43F0010318473B
:10012000806A0000A06A00000A444FF0000C10F83A
:10013000013B13F0070408BF10F8014B1D1108BF65
:1001400010F8015B641E05D010F8016B641E01F805
:10015000016BF9D113F0080F1EBF10F8014BAD1C55
:100160000C1B09D16D1E58BF01F801CBFAD505E073
:1001700014F8016B01F8016B6D1EF9D59142D6D3CD
:10018000704700000023002400250026103A28BFF5
:1001900078C1FBD8520728BF30C148BF0B607047F9
:1001A0006E2900F0D981702900F02383662906F0BA
:1001B0003683652906F03383672906F03083612989
:1001C00006F02F8303681B0A28BF41F080016929CC
:1001D00000F08681642900F08381752900F0808118
:1001E0006F2900F0B082782900F0EF82E92900F051
:1001F0004B82E42900F04882F52900F04582EF297E
:1002000000F0AD82F82900F0EE820368DB0928BF18
:1002100041F08001632900F0F587732900F0FA8727
:10022000E32901F00580F32901F00A8000207047DE
:100230001FB501F05BF804000020002105F084F9EF
:10024000401C60600020002105F068F9E0601FBDDF
:1002500010B510BD01F01CF81146FFF7E9FF04F0DE
:1002600045FD01F0F9F803B4FFF7F2FF03BC01F01C
:10027000FDF800000948804709480047FEE7FEE70F
:10028000FEE7FEE7FEE7FEE7FEE7FEE7FEE7FEE746
:1002900004480549054A064B70470000153600081A
:1002A000ED00000868040020680A002068060020AD
:1002B000680600207CB51D4616460C00009001D053
:1002C0002044401E074B7B442A4669460190304635
:1002D00000F05BF905461CB10020694600F068F9A2
:1002E00028467CBDF102000040EA010370B59B077F
:1002F0002ED14FF00136042A2AD308C810C99D1BFD
:100300009D43121F15EAC61517D0D8B2E1B2401AA4
:1003100050EA056110D198B2A1B2401A50EA0541E5
:100320000AD123F07F4024F07F41401A50EA052192
:1003300002D1180EA0EB146070BDA342DBD018BA36
:1003400021BA884201D9012070BD4FF0FF3070BD45
:100350000AB9002070BD10F8013B11F8014B63B1E0
:10036000A3420AD1521E08D010F8013B11F8014BEC
:100370001BB1A34201D1521EEDD1181B70BD00006C
:100380004FF0013C50F8042B51F8043B9A4221D124
:10039000A2EB0C03934313EACC1317D150F8042BB0
:1003A00051F8043B9A4215D1A2EB0C03934313EA94
:1003B000CC130BD150F8042B51F8043B9A4209D1CD
:1003C000A2EB0C03934313EACC13DBD04FF00000F5
:1003D000704700BFD01A01BAB1FA81F101F01801DB
:1003E00022FA01F0CB40C1F12001DBB2C0B2C01A49
:1003F0002CFA01F3D11A914311EAC311E6D17047E7
:1004000070477047704710B500F0C2FA006810BD21
:1004100010B5044600F0BCFA046010BD70B5044687
:1004200085690068C10601D5302600E02026C00796
:1004300007D070BDD4E9012130469047206A401CA6
:1004400020626D1EF6D570BD70B5044685690078D2
:10045000C00707D170BDD4E9012120209047206A50
:10046000401C20626D1EF6D570BD09684A0501D595
:1004700040B27047C905FCD500B2704709684A050B
:1004800001D5C0B27047C905FCD580B2704770B5C0
:100490000C460546012A05D02878800600D5EA6971
:1004A000002302E0012305E05B1C934202D2E05CE2
:1004B0000028F9D1A869E618C01AA861286A18446A
:1004C00028622846FFF7AAFF04E0D5E9012114F8C5
:1004D000010B9047B442F8D32846FFF7B5FF70BD33
:1004E0002DE9F0410646002410687529314616A50D
:1004F00010D0FFF7BAFF002802DA404213A507E048
:1005000031688A0701D512A502E0490704D511A573
:10051000012401E0FFF7B2FF00210A2206F12407BF
:1005200009E0B0FBF2FCB0FBF2F302FB1C00303040
:1005300078541846491C0028F3D123462A463046F1
:10054000BDE8F04100F06DBA000000002D00000091
:100550002B0000002000000011680268006A5305AB
:1005600001D508700AE0D30501D5088006E013061E
:1005700003D5C217C1E9000200E0086001207047FE
:1005800001694A1C02610878704700B58FB0CDE957
:1005900001310021059105497944CDE90310114647
:1005A000684600F031F90FB000BD0000E5FFFFFF25
:1005B0000A6802F8010B0A607047D1E900239A42E9
:1005C00002D2531C0B601070704700002DE9FF5FD2
:1005D00015468A460446DFF8AC80F8440027D8E97F
:1005E00000103E46CDE9001010E03AF816106A46B9
:1005F00002A800F029FE411C07D02178890603D506
:10060000E269391891420DD80744761C207880069B
:1006100002D5E069B84205DDAE42E6DB3AF81600E5
:100620000028E2D1A069C01BA0612046FFF7F6FEBA
:10063000D8E90010CDE90010002017E03AF81810B2
:100640006A4602A800F000FEB0F1FF3F81460BD0E1
:1006500000250DF1080B05E0D4E901211BF8050088
:1006600090476D1C4D45F7D308F10100B04280461C
:10067000E4DB206A384420622046FFF7E5FEBDE84F
:10068000FF9F0000866300002DE9F0418046D21DE7
:1006900022F007020025D2E90002F52915A614D0A0
:1006A000011E72F1000106DA0023D0EB030063EBB8
:1006B000020211A608E0D8F800108B0701D50FA69A
:1006C00002E0490701D50EA601251146002408F1D4
:1006D000240704E000F060F930323A55641C50EA17
:1006E0000102F7D12B46324621464046BDE8F04193
:1006F00000F097B9000000002D0000002B00000062
:100700002000000030B4002100F1240408E002F0D1
:100710000705D208303542EA4372DB086554491CAC
:1007200052EA0305F3D10468002310A2250707D578
:10073000A40600D421B1C46901230DA2641EC461C2
:1007400030BC00F06EB910B5044621461068FFF7C2
:1007500095FE02462046BDE810400023D2E7D21D98
:1007600022F00701D1E90023CCE7000000000000DF
:1007700030000000F0B40D460188090502D5214C77
:100780007C4402E01F4C7C440E34002100F124061E
:1007900008E002F00F071209E75D42EA03721B0945
:1007A0007754491C52EA0307F3D102780023120759
:1007B00004D5702D06D009B1022311342246F0BCB5
:1007C00000F02FB901231034F8E770B504460D4648
:1007D00021461068FFF752FE024629462046BDE832
:1007E00070400023C6E7D21D22F00703D3E900239F
:1007F000C0E70368126843F0200303600823C36165
:100800000023B7E7E86100002DE9F05F8946044660
:100810004FF0000ADFF874B1FB44C0F820A0204676
:10082000E1688847002874D0252806D0D4E9012142
:100830009047206A401C2062F1E700265F46204670
:10084000E16888472028054607DB312D05D2781955
:1008500010F8200C08B10643F1E7B00701D526F0E7
:100860000406C4F81CA00027C4F818A02A2D09D03B
:10087000284603F00DFE38B304EB8708303DC8F876
:10088000185019E059F8041B204604EB87029161C7
:10089000E1688847012F054618D1E069002820DA71
:1008A00026F020061DE0D8F8180000EB800005EBCC
:1008B00040003038C8F818002046E16888470546EF
:1008C00003F0E6FD0028EED1012F0AD02E2D08D12D
:1008D0002046E16888477F1C0546022F46F0200627
:1008E000C4DBA069002803DA404246F00106A0619B
:1008F000F00701D026F010066C2D0BD0682D09D022
:100900004C2D39D06A2D35D0742D35D07A2D33D079
:1009100016E038E0E1682F4620468847B842054691
:1009200009D16C2F26D04FF48060E1680643204641
:100930008847054604E06C2F1AD04FF480700643B8
:100940000DB3A5F14100192802D8203546F4006600
:100950004A462946204626604E46FFF721FC80B1D4
:1009600001280BD0F61D26F0070000F1080956E714
:100970004020E4E78020D8E70020D6E706F104090C
:100980004DE7284652E7206ABDE8F09F78610000F5
:10099000004870470404002030B5B0F10A024FEA65
:1009A000900E71F100034EEA817EB0EB0E0061EB18
:1009B00091014FEA101E4EEA017E10EB0E0041EB52
:1009C00011114FEA102E4EEA016E10EB0E0041EBB2
:1009D00011214FEA104E4EEA014E10EB0E0041EB92
:1009E0001141401841F100014FEAD00040EA417046
:1009F0004FEAD10110EB80054FEA810444EA90747C
:100A000044EB01046D1944EB0404521BA3414FF065
:100A1000000348BF0A3200D530BD401C41F100013F
:100A200030BD2DE9F0470D4699469246044600F147
:100A300024080168880604D5E06921F010012160CE
:100A400000E00120A84201DD471B00E00027A1696A
:100A50007A1902EB0900081AA0612078C00602D4B6
:100A60002046FFF7DBFC002608E0D4E901211AF854
:100A700006009047206A401C761C20624E45F4DB3D
:100A80002078C0060AD52046FFF7C8FC06E0D4E966
:100A9000012130209047206A401C2062381EA7F1B7
:100AA0000107F4DC07E0D4E9012118F805009047BC
:100AB000206A401C2062281EA5F10105F3DC2046B7
:100AC000FFF7C2FC2078000602D50220BDE8F087BF
:100AD0000120FBE770472DE9FF4F0C461E464FF003
:100AE000FF378BB0D2E90001DDF860800A908A46BA
:100AF000C1F30A5505B93D46002108464FF00000F4
:100B0000BAF1000F00F4400005DA00EB80004FF46A
:100B1000400101EA50004FEA9059B9F1010F00DDA0
:100B2000B9460A9850EA4A000ED044F61050A5F291
:100B3000FF3545432F14B8F1000F1ED07542291E12
:100B40001EDDC9F100021CE0B8F1010F4FF00000FA
:100B500001D0302103E0F24305E02154401CB042B3
:100B6000FBDB30460022002121540B99C1F808809C
:100B7000C1E900200FB0BDE8F08FBD1B6D1CDEE7A2
:100B80004A4600DA694206A800F0F4FB06AB93E897
:100B9000070003AB83E8070050460A9900F06DFC9C
:100BA0008DE80700A0F500501F3800900398002D35
:100BB0000ADD42F21F014A460844002303A90390BC
:100BC000684600F0D6FE09E0A0F500504A461F38FE
:100BD000002303A90390684600F0E0FE8DE80700BB
:100BE0000004000C03D04FF0FF30410800E0104635
:100BF000B8F1000F03D00022009215461EE0751ECA
:100C000005D4FFF7C9FE303262556D1EF9D5B346E3
:100C10000122084302D000227F1C04E02078302803
:100C200001D100227F1E002A099784D01DE0112DDA
:100C300007DAFFF7B1FE303262556D1C50EA01024F
:100C4000F5D1084302D00098C8B10EE00021681E1B
:100C500005E0235C625C63542254401E491C8142BF
:100C6000F7DBAB46A81B401E0990002004F80B00E0
:100C70000B98099AC0F80880C0E9002B7AE7112682
:100C80004FF0000857E72DE9F04F88460446D21D83
:100C900022F0070191B0D1E90001CDE90A0103F08A
:100CA000ADFA02460B98C00F01D02D2007E0206856
:100CB000810701D52B2002E0202101EAC000032A90
:100CC000099001D0072A05DB03464146204600F083
:100CD00011FB0BE12078800601D5E06900E00620D9
:100CE000B8F1650F814606D0B8F1660F18D0B8F19B
:100CF000670F70D131E00020B9F1110F009001DBD6
:100D0000112301E009F101030AAA01A90CA8FFF7C8
:100D1000E2FEDDE90C70002609F10105834647E09B
:100D200001204B4600904FF000470AAA01A90CA8E9
:100D3000FFF7D1FEDDE90DB00C995D46002610B934
:100D400009F101000D18B9EB050003D4C0F1FF361D
:100D500009F10105A5EB09002BE0B9F1010F01DA5A
:100D60004FF001090020B9F1110F0090484601DD54
:100D7000112300E003460AAA01A90CA8FFF7ABFE65
:100D8000DDE90C704D4600268346207800070AD422
:100D9000AB4500DA5D4601A8012D04DD411911F8CB
:100DA000011C302907D04F4502DA17F1040F04DA8D
:100DB000012082460FE06D1EEEE7002F02DCED1BE6
:100DC0003E4403E0781CA84200DD7D1CB81B00F106
:100DD000010A4FF000472078000703D4AA4501DB41
:100DE0004FF0FF3A0021B7F1004F0DF143088DF8A5
:100DF000431024D002202B23002F01DA7F422D2321
:100E00000A21021EA0F1010000DC5FB197FBF1FC9A
:100E100097FBF1F201FB1C7C17460CF1300C08F833
:100E200001CDEEE7A8F1010003702188090501D585
:100E3000452100E06521A0F1010800F8011C099896
:100E40000FA9A1EB0807FF1D00B10120411901EB1B
:100E5000EA70A1693844081A401EA0612078C006D3
:100E600002D42046FFF7DAFA099828B1D4E9012123
:100E70009047206A401C20622078C00622D5204678
:100E8000FFF7CCFA1EE0002E04DBB34502DD01A81B
:100E9000805D00E03020D4E901219047206A401CA9
:100EA0002062761CAAF101005FEA000A0AD100F074
:100EB0001DFAC0680168405CD4E901219047206AAE
:100EC000401C2062281EA5F10105DCDC07E0D4E906
:100ED000012118F8010B9047206A401C2062381E3F
:100EE000A7F10107F3DC2046FFF7AEFA032011B0AB
:100EF00041E600002DE9F04F04460D46D21D22F0D8
:100F0000070089B0D0E900974846394603F076F9E2
:100F10000246F80F01D02D2307E02068810701D594
:100F20002B2302E0202101EAC0038DF820300BB111
:100F3000012000E00020032A824601D0072A04DBBA
:100F40002946204600F0D6F93FE12078800601D4FA
:100F50000D2500E0E569C7F30A560D2D49DA002199
:100F60004FEA175B08464FF00000002F00F44000E6
:100F700007DA00EB80004FF4400100EBD07001EA8B
:100F800060008115012901DD4FF0FF3100224FEA99
:100F9000850CBCF1180F06D31346ACF118004FF0C6
:100FA0008052C24003E04FF4801323FA0CF30CF19B
:100FB0000C0CBCF1200F04D3ACF1200C09FA0CF09E
:100FC00001E007FA0CF000294FF0004801DD18B9E4
:100FD0000FE00ED140450CD319EB02095F4121B956
:100FE000404502D19F4329EA0209BBEB175F00D0BD
:100FF000761C2088000502D57B48784402E07A48B8
:101000007844193808AA302302F80A30037C0AF120
:101010000101002E0AF1020A53546A4602DC4FF025
:10102000300101E04FF031014FF001088DF8001060
:1010300002D0A6F2FF3603E059EA470100D06B4E1A
:10104000002D02DC2178090704D54FF002082E217B
:101050008DF80110C44600210BE0C7F303433F01A4
:10106000C35C491C6D1E02F80830052908F101080F
:1010700001DA002DF1DC00210CE000EB1973491CB2
:101080001B786D1E082902F808304FEA091908F18B
:10109000010801DA002DF0DC21688B0602D516E08C
:1010A000A8F10108E04505DD02EB080313F8013C57
:1010B000302BF5D0B8F1000F09DD02EB080313F86F
:1010C000013C2E2B03D1090701D4A8F10108002D02
:1010D00005DD3E2102F808106D1E08F10108407C74
:1010E000002E02F8080008F1010804DA2D207642EB
:1010F00002F8080002E02B2002F808000A214FF451
:101100007A70864208F101080BDB96FBF0F330336E
:1011100002F8083096FBF0F308F1010800FB1366B3
:1011200001E0642E0CDB642096FBF0F3303302F810
:10113000083096FBF0F308F1010800FB136601E0AC
:101140000A2E06DB96FBF1F0303002F8080008F1B9
:10115000010896FBF1F001FB1060303002F8080046
:10116000A16908F1010808EB050202EB0A00081A60
:10117000A0612078C00602D42046FFF74FF9216A0B
:1011800008AE01EB0A00206204E0D4E9012116F860
:10119000010B9047BAF1010AF7D22078C00602D5B8
:1011A0002046FFF73BF96E4609E016F8010B3E2892
:1011B0000FD0D4E901219047206A401C2062B8F189
:1011C0000108F2D22046FFF73FF909B00320BDE83D
:1011D000F08F206A2844206203E0D4E90121302006
:1011E00090476D1EEBD3F8E77D5A000002FCFFFF2D
:1011F00010B5436913B1AFF3008001E0FFF747F981
:10120000012010BD127800F124010A7000224A70FA
:101210000122EDE711684FF0FF32E9E710B54369AD
:1012200013B1AFF3008001E0FFF7D0F9012010BD4A
:10123000128800F1240182840022C2840122EDE799
:1012400011684FF0FF32E9E770B516460C460546C7
:1012500000F044F8036893F80101012806D0FF2C40
:101260000FD8185D68B101202C7070BDD3F807014C
:101270003246214603F2071303442846BDE8704076
:1012800018474FF0FF3070BD00487047040400203D
:101290007546FFF7F9FFAE4605006946534620F054
:1012A0000700854618B020B5FEF7F2FFBDE82040E4
:1012B0004FF000064FF000074FF000084FF0000B12
:1012C00021F00701AC46ACE8C009ACE8C009ACE8C5
:1012D000C009ACE8C0098D467047000010B500F0A9
:1012E00005F8001D10BD00BF6142000000487047B6
:1012F000240400202DE9F0411F460446032601681E
:10130000072A01F4006004DB08B116A505E016A564
:1013100003E008B115A500E015A521F0100020603C
:10132000A069C01EA0610FB1401EA0612046FFF75A
:1013300075F84FB1D4E9012138469047206A401C26
:101340002062C01C206206E0206AFAE7D4E901218D
:1013500015F8010B9047761EF8D22046FFF774F877
:10136000BDE8F0814E414E006E616E00494E460070
:10137000696E66002DE9F047814616468AB0354809
:1013800078440DC88DE80D0032487844801C03ACC9
:101390000DC884E80D0041F69B300844372190FBCE
:1013A000F1F290FBF1F5A5F1800501FB12041B3C65
:1013B00002D56442012000E00020DFF898A08046BA
:1013C0000027FA44AAF1BE0A0EE0E0070AD032462E
:1013D000684607EB470101230AEB810100F0DEFAC2
:1013E0008DE8070064107F1C002CEED1194F7F445C
:1013F000AE3F19E0E80715D007EB04100DF1180A0D
:1014000090E80E008AE80E00C068F04201D19819F9
:1014100008903246012306A903A800F0BFFA03ABE7
:1014200083E807006D10641C002DE3D14FF0010329
:1014300032466946B8F1000F03A802D000F099FACD
:1014400001E000F0ABFAC9E90001C9F808200AB0D0
:10145000BDE8F0878857000010B50446AFF3008060
:101460002046BDE81040FEF7FEBE000001491820EE
:10147000ABBEFEE72600020070475FEA400C08BFE3
:1014800091F0000F4FEA8C234FEAC12243EA5151F9
:101490004FEA1C5018BF00F5F0404FEA300018BF6B
:1014A00041F000415FEA6C5C00F02980BCF1FF3F35
:1014B00008BF40F080407047130C06BF12044FF085
:1014C000100C4FF0000C130E04BF12020CF1080CAC
:1014D000130F04BF12010CF1040C930F04BF920010
:1014E0000CF1020CD30F04BF52000CF1010C114699
:1014F0004FF00002A0F11F00A0EB0C00704711F0AC
:10150000004F08BF704731F000413FF4D5AF0B0CDE
:1015100006BF09044FF0100C4FF0000C0B0E04BF77
:1015200009020CF1080C0B0F04BF09010CF1040CAB
:101530008B0F04BF89000CF1020CCB0F04BF4900D4
:101540000CF1010CCCF12003A0EB0C0022FA03F308
:1015500002FA0CF241EA030100F10100704720F0A9
:101560007F4C80EA030023F07F47ACEB070303F5D1
:101570007C5300F0004003F1FF032DE980494FEA5E
:10158000154B09B44FEA144325EA0B4E24EA0348ED
:101590000FF2042606EB132749083E785FEA320271
:1015A00003FB0667C7F5000707FB06F64FEA54374B
:1015B0004FEAD64606F1020607FB066CCCF1005C4A
:1015C0004FEA1C472CEA074C07FB06F40CFB06F518
:1015D00004EB15464FEA961634BF00204FF000404A
:1015E0004FEAD13706FB07FC4FEA1C4C0CFB0BF70C
:1015F000D21B03FB0CF761EB07010CFB0EF7B0EB02
:10160000074072EB17420CFB08F734BFA2EB07420E
:10161000B2EB074261EB17414FEA0C444FEA9107E6
:1016200006FB07FC4FEA1C4C0CFB0BF7B0EBC7406A
:1016300072EB573203FB0CF734BFA2EBC742B2EB9D
:10164000C74261EB57310CFB0EF7B0EBC70072EBF2
:1016500057720CFB08F734BFA2EBC702B2EBC7020C
:1016600061EB5771039F4FEA816141EA921104EBEC
:10167000CC044FEAD1374FEA826206FB07FC42EA0C
:1016800090124FEA80604FEA1C4C0CFB0BF7D21B08
:1016900003FB0CF761EB07010CFB0EF7B0EB074007
:1016A00072EB17420CFB08F734BFA2EB0742B2EB18
:1016B000074261EB17414FEA8C554FEA910704EB63
:1016C0009C2406FB07FC4FEA1C4C0CFB0BF7B0EB11
:1016D000C74072EB573203FB0CF734BFA2EBC74293
:1016E000B2EBC74261EB57310CFB0EF7B0EBC70012
:1016F00072EB57720CFB08F734BFA2EBC702B2EBD8
:10170000C70261EB577115EB4C254FEA816141EA45
:1017100092114FEA82624FEAD13742EA901206FBF9
:1017200007FC44F100044FEA80604FEA1C4C0CFBBC
:101730000BF7D21B03FB0CF761EB07010CFB0EF759
:10174000B0EB074072EB17420CFB08F734BFA2EB7B
:101750000742B2EB074261EB174115EB1C154FEA4C
:10176000813141EA92414FEA823242EA90424FEAA5
:1017700080304FEA0C7644F1000448EA03434EEA15
:101780000B484FF0000EB2EB080C71EB030724BFBF
:10179000624639464EEB0E0E4FF0000B00185241D8
:1017A00049414BEB0B0BB2EB080C71EB03077BF1E0
:1017B000000B24BF624639464EEB0E0E4FF0000B75
:1017C0000018524149414BEB0B0BB2EB080C71EB8B
:1017D00003077BF1000B24BF624639464EEB0E0E29
:1017E00051EA020718BF46F0010616EB0E7655F1D6
:1017F000000254F1000103D5BDE88901BDE800886D
:10180000BDE88901BDE80048B619524141EB01012C
:10181000A3F10103704780807F7E7D7C7B7A79789D
:10182000777676757473727171706F6E6E6D6C6CA5
:101830006B6A6A6968686766666564646363626147
:101840006160605F5F5E5E5D5D5C5C5B5B5A5A59C8
:101850005958585757565655555554545353525234
:101860005251515050504F4F4F4E4E4D4D4D4C4C8C
:101870004C4B4B4B4A4A4A494949484848474747D5
:101880004746464645454544444444434343434212
:10189000424242414141002B9C4630D477002BD03C
:1018A0001CB54FEA370703B44FF010004FF010019A
:1018B000BAF1000F06D0BCF1000FDCBF40F0080009
:1018C00040F008014FF000000FBCBDE810400BF1E4
:1018D000010BBBF1010F08BF5FEA170722BF12F12E
:1018E000010211F101014FF0004143F1000300F04A
:1018F000004043EA00007047F9D35708D0E746EAB2
:10190000064613F1400F4FEA16461FDD13F1200F74
:10191000DFBF16430A46002120335B42BED0C3F12D
:10192000200746EA064602FA07F74FEA164646EA55
:101930000706C3F1200722FA03F201FA07F721FA9A
:1019400003F14FF0000342EA0702A7E746EA020666
:1019500046EA06464FEA164646EA0106BCBF46EA94
:101960000646360C4FF000034FF000024FF0000126
:1019700094E72DE9804C9A46934670B491E838007C
:1019800007C831EA400C48BF34EA430C03D5FFF7DF
:10199000E6FDFFF780FFF0BCBDE8008C2DE9804C30
:1019A0009A46934670B491E8380007C810F0804F0B
:1019B00008BF13F0804F03D100F005F8FFF76BFF6D
:1019C000F0BCBDE8008C20F07F4780EA030023F0E4
:1019D0007F4C07EB0C03A3F57C5300F00040A3F110
:1019E000FE0392F0000F00F0B38095F0000F00F0BE
:1019F00077802DE901494FEA11404FEA144621EA68
:101A0000004800FB06FC24EA064708FB06F607FB35
:101A100008F800FB07F718EB06484CEB164C4FEAAA
:101A2000124B18EB07484FEA15464CEB174022EAD9
:101A30000B4E0BFB06FC25EA06470EFB06F607FBE2
:101A40000EFE0BFB07F71EEB064E4CEB164C4FF051
:101A500000061EEB074E4CEB174B18EB0B0840F142
:101A6000000018EB0E0B58EB000840F100008F1A35
:101A70004FF000013CBFC943661B14BFB5EB040C1B
:101A800000213CBFC943F61B4FEA17444EEA8E0EB5
:101A900027EA04454FEA1C4704FB07622CEA074C7F
:101AA00005FB07F70CFB05F604FB0CFC16EB0746E1
:101AB00042EB174216EB0C4642EB1C421BEB0606B0
:101AC00058EB0202414146EA9E0601D5BDE8018974
:101AD000B619524141EB0101A3F10103BDE80189AF
:101AE0004FEA14454FEA114724EA054621EA074C1C
:101AF00005FB07F406FB07F70CFB06F105FB0CFCE6
:101B000011EB074144EB17444FEA124711EB0C412C
:101B100044EB1C4422EA074C05FB07F206FB07F7DF
:101B20000CFB06F605FB0CFC16EB074642EB1742D6
:101B300016EB0C4642EB1C456A1854F1000148BFF5
:101B40007047B619524141EB0101A3F101037047FF
:101B500095F0000F37D04FEA11424FEA144721EABF
:101B6000024624EA074C02FB07F106FB07F70CFBD1
:101B700006F402FB0CFC14EB074441EB17414FEA5F
:101B8000154714EB0C4441EB1C4125EA074C02FBC2
:101B900007F506FB07F70CFB06F602FB0CFC16EB41
:101BA000074645EB174516EB0C4645EB1C42121950
:101BB00051F1000148BF7047B619524141EB010194
:101BC000A3F1010370474FEA14454FEA114724EA95
:101BD000054621EA074C05FB07F106FB07F70CFB5E
:101BE00006F24FF0000605FB0CFC12EB074241EB3E
:101BF000174112EB0C4251EB1C4148BF7047921841
:101C000041EB0101A3F10103704700BFFEE77047FC
:101C100000B5034603E04FF47A7000F005F8181E93
:101C2000A3F10103F7D100BD00B9704700EBC0017B
:101C3000C9004FF0E022516100219161052111613D
:101C400000BF4FF0E021096901F480310029F8D08C
:101C500004214FF0E022116100BFE6E710B5044611
:101C60009CB10120184908701848B0F900000028FC
:101C700004DA1648B0F90000404202E01348B0F917
:101C8000000000B21149088013E0FF200E490870DF
:101C90000E48B0F90000002804DA0C48B0F9000042
:101CA000404202E00948B0F90000404200B2074952
:101CB000088000F02BF9064800F018F900F0AEFF9C
:101CC00001200449088010BD14000020800000207D
:101CD00064010020820000202DE9F0410246002529
:101CE0000026002000230024002791F803C00CF0F8
:101CF0000F0591F803C00CF0100CBCF1000F03D0DD
:101D000091F802C04CEA050591F800C0BCF1000F43
:101D100031D0146800202BE04FF0010C0CFA00F3D6
:101D2000B1F800C00CEA03069E4220D183004FF0B8
:101D30000F0C0CFA03F7BC4305FA03FC4CEA04044D
:101D400091F803C0BCF1280F06D14FF0010C0CFA3A
:101D500000FCC2F814C00AE091F803C0BCF1480FBF
:101D600005D14FF0010C0CFA00FCC2F810C0401C69
:101D70000828D1D31460B1F800C0BCF1FF0F34DDE6
:101D8000546800202EE000F1080C4FF0010808FA1A
:101D90000CF3B1F800C00CEA03069E4221D1830087
:101DA0004FF00F0C0CFA03F7BC4305FA03FC4CEAA6
:101DB000040491F803C0BCF1280F05D100F1080C10
:101DC00008FA0CF8C2F8148091F803C0BCF1480F6F
:101DD00007D100F1080C4FF0010808FA0CF8C2F81E
:101DE0001080401C0828CED35460BDE8F08100006C
:101DF000F0B50A46002300240021002500F000462B
:101E0000B6F1004F02D11D4EF16901E01B4E716821
:101E1000C0F3034583B200F44016B6F5401F08D165
:101E200021F07061154E766826F07066134F7E6063
:101E300012E000F48016B6F5801F06D1032606FADC
:101E400005F4A14341F0706106E0460D360103FA46
:101E500006F6B14341F0706122B1460D360103FA36
:101E600006F6314300F00046B6F1004F02D1034EB2
:101E7000F16101E0014E7160F0BD00000000014021
:101E80000246002093680B400BB1012000E00020C7
:101E9000704741617047016170470AB1016100E01C
:101EA0004161704705480078022804D100200349A9
:101EB0000870012070470020FCE700003800002077
:101EC00000487047F402002010B5024801F031FDCF
:101ED00000B210BD0008004010B5024801F029FD15
:101EE00000B210BD0004004000BFFEE70021816287
:101EF000C162016304494163012180F83810002167
:101F000080F82410704700000000B44200B50A4871
:101F100000F0FEFE094800F0FBFE094800F0F8FE64
:101F2000084801F0BDFA084801F0BAFA0020074954
:101F300008600749086000BD84000020BC00002044
:101F4000F40000207403002080030020A001002082
:101F5000A401002010B5029C016042608360C4604F
:101F600010BD2DE9F04104460D462168E06804F0FB
:101F7000D7F8E0606168E06804F0D2F806463146C0
:101F8000E06804F041F920612846A16804F0D2FB22
:101F90000746216904F096FA0646A16804F0C0F8E5
:101FA000A0604FF07E50216904F0C4FB0646E16852
:101FB00004F088FAE060A068BDE8F08108B501216E
:101FC000082001F021F810208DF803004FF4E040C4
:101FD000ADF8000003208DF8020069460848FFF7BD
:101FE0007BFE0121080301F0DBF80121480301F029
:101FF000D7F800214FF4804001F0D2F808BD00006E
:10200000000C01402DE9F04F95B00446204600F049
:1020100035F9B4F9000004F0F5F907468C48016879
:10202000384604F04FFA0646B4F9020004F0EAF923
:10203000074687480168384604F044FA8146B4F9F7
:10204000040004F0DFF9074681480168384604F0CF
:1020500039FA8246B4F9060004F0D4F980467D4886
:102060000168404604F02EFA07467B48016838466E
:1020700004F028FA1390B4F9080004F0C3F980467C
:1020800074480168404604F01DFA0746724801682A
:10209000384604F017FA1290B4F90A0004F0B2F9C5
:1020A00080466C480168404604F00CFA07466A48CE
:1020B0000168384604F006FA11905146504604F083
:1020C00001FA49460C90484604F0FCF931460B9061
:1020D000304604F0F7F90A900B9904F021F8834692
:1020E0000C9904F01DF80D9003F0EEFF074603F085
:1020F000EFF9CDE90E0103F03DFA1090109803F0CE
:10210000E3FF07464FF03332544B03F0CBFD01D2CF
:10211000534D00E0534D54481299006804F000F804
:102120005149086051481399006803F0F9FF4F497D
:10213000086029464FF07E5004F0FCFA80464A4879
:102140000168404604F0BEF9074603F0BDFFCDE943
:102150000C01504603F0B8FFCDE90201484603F0F8
:10216000B3FFCDE90001DDE9022302F0A9FACDE9D0
:102170000401284603F0A8FF0746DDE9042303F025
:1021800093FC4FF080423A4BCDE9060103F0E0FAB0
:102190000022384BCDE9080103F086FCCDE90A01A5
:1021A000DDE90C2303F018FACDE90E0103F0E2F9A2
:1021B000606129464FF07E5004F0BCFA80462B48FF
:1021C0000168404604F07EF9074603F07DFFCDE943
:1021D0000C01504603F078FF07468846304603F06E
:1021E00073FF3A464346CDE9000102F069FACDE9B2
:1021F0000401284603F068FFCDE90201DDE904236C
:1022000003F052FC4FF08042194BCDE9060103F078
:102210009FFA0022174BCDE9080103F045FCCDE9F8
:102220000A01DDE90C2303F0D7F981F00041CDE983
:102230000E0103F09FF9A0610F49119804F042F9D3
:102240000746216903F06CFF206115B0BDE8F08FEF
:10225000BC010020B8010020A80100203333F33F67
:10226000CDCC4C3F48E17A3FCC010020D00100208A
:10227000FB21094000806640E62E654270B50446A9
:10228000524B0E223B21524800F0A6FA4F484078AC
:102290004E49097840EA012000B220804B48C078BE
:1022A0004A49897840EA012000B260804748407975
:1022B0004649097940EA012000B2A0804348C0792C
:1022C0004249897940EA012000B2A0813F48407A22
:1022D0003E49097A40EA012000B2E0803B48C07ADA
:1022E0003A49897A40EA012000B220813748407B90
:1022F0003649097B40EA012000B26081E088354917
:102300000988401A00B2E080208933490988401AC0
:1023100000B22081608931490988401A00B2608189
:10232000B4F9000004F06EF8064631462C4800F07F
:102330000DFE054604F02AF800B22080B4F9020030
:1023400004F060F806463146264800F0FFFD0546D9
:1023500004F01CF800B26080B4F9040004F052F8F4
:1023600006463146204800F0F1FD054604F00EF81F
:1023700000B2A080B4F9060004F044F806463146E5
:102380001A4800F0E3FD054604F000F800B2E080D2
:10239000B4F9080004F036F806463146144800F057
:1023A000D5FD054603F0F2FF00B22081B4F90A0022
:1023B00004F028F8064631460E4800F0C7FD0546F1
:1023C00003F0E4FF00B2608170BD0000F403002060
:1023D0009C030020C0010020C2010020C401002095
:1023E000AC030020B8030020C4030020D003002069
:1023F000DC030020E80300202DE9F05F044620798B
:1024000030B1082807D0102808D018280CD108E0CF
:102410004FF08D4508E04FF08C4505E04FF08B45BF
:1024200002E04FF08A4500BF00BFE07830B10828D5
:1024300006D0102806D0182808D105E03D4E05E04A
:102440003D4E03E03D4E01E03D4E00BF00BF29463A
:102450004FF07E5003F0D8FE3A49086031463A48C2
:1024600003F0D2FE3949086080226B21384800F021
:10247000FBF96420FFF7CCFB00226B21344800F00D
:10248000F3F92088B0F57A7F03DB4FF47A7020806F
:1024900004E02088042801DA04202080208803F04A
:1024A000C9FF834659462B4803F0AEFE82464FF0E3
:1024B0007E5104F03FF9814603F084FF00F0FF08ED
:1024C00042461921224800F0CFF900223721204846
:1024D00000F0CAF9A27938211D4800F0C5F9A278A8
:1024E0001A211B4800F0C0F9E2781B21184800F0BF
:1024F000BBF922791C21164800F0B6F96279232134
:10250000134800F0B1F90027607900B14027A079A5
:1025100000F0010008B947F008073A466A210C4864
:1025200000F0A2F901226B21094800F09DF9BDE8F5
:10253000F09F000000000343000083423333034256
:1025400033338341BC01002039FA8E3CB8010020AE
:102550009C03002000007A442DE9FF5F044600251B
:1025600000260027AB462FE002AB06224321574846
:1025700000F032F99DF80800000200B29DF8091041
:1025800040EA01089DF80A00000200B29DF80B1015
:1025900040EA01099DF80C00000200B29DF80D1000
:1025A00040EA010A45444E445744494949480068B5
:1025B00003F088FF009003F005FF0190FFF728FB70
:1025C0000BF101001FFA80FBA345CDDB95FBF4F076
:1025D00000B24149088096FBF4F000B23F49088000
:1025E00097FBF4F000B23E490880002005460646FD
:1025F0000746834641E002AB06224321334800F000
:10260000EBF89DF80800000200B29DF8091040EABE
:1026100001089DF80A00000200B29DF80B1040EA84
:1026200001099DF80C00000200B29DF80D1040EA6F
:10263000010A29480088A8EB00000FFA80F8274813
:102640000088A9EB00000FFA80F925480088AAEB62
:1026500000000FFA80FA45444E4457441C491D4877
:10266000006803F02FFF009003F0ACFE0190FFF72D
:10267000CFFA0BF101001FFA80FBBBF1640FBADB4C
:10268000642395FBF3F2002A01DB134600E053427A
:10269000022B18DB642396FBF3F1002901DB0B46C8
:1026A00000E04B42022B0EDB642397FBF3F0002883
:1026B00001DB034600E04342022B04DB4FF0FF3016
:1026C00004B0BDE8F09F0020FAE700009C03002062
:1026D00000007A44A8010020C0010020C2010020AF
:1026E000C4010020F0B585B004460D46164605200D
:1026F000682123462A46CDE90061029021462C48F4
:1027000000F0BCF9C820ADF80C0002208DF80E00D6
:1027100018208DF80F0008208DF8100000208DF88B
:10272000110001208DF8120003A8FFF765FEBDF827
:102730000C0003F07FFE074639464FF07E5003F051
:1027400063FD1C4908604FF4B470FFF761FA00277D
:1027500005E0C820FFF700FF00B902E07F1C032F4F
:10276000F7DB00BFBDF80C201349144800F020FC33
:10277000BDF80C201049124800F01AFCBDF80C20DE
:102780000D49104800F014FCBDF80C200E490F480C
:1027900000F00EFCBDF80C200B490D4800F008FCC1
:1027A000BDF80C2008490B4800F002FC05B0F0BD54
:1027B0009C030020A801002000004042AC03002040
:1027C000B8030020C40300200000F042D003002022
:1027D000DC030020E80300202DE9F04104460F4609
:1027E000164698461F48046001F0CEFC607B01F05D
:1027F000F0FC01F0A0FC012803D101F0D3FCBDE8FE
:10280000F081384601F0E5FC01F095FC012802D189
:1028100001F0C8FCF3E701F0B7FC617B41F0010077
:1028200001F0D7FC01F087FC012802D101F0BAFCCD
:10283000E5E700250FE001F08DFC08F80500701EAB
:10284000A84203DD002001F0B8FC02E0012001F005
:10285000B4FC681C85B2B542EDDB01F0A3FC00BFFF
:10286000CDE700000402002070B504460E46154670
:102870001048046001F088FC607B01F0AAFC01F0C4
:102880005AFC304601F0A5FC01F055FC207B0128E4
:1028900008D1281201F09DFC01F04DFCE8B201F0D6
:1028A00098FC02E0E8B201F094FC01F044FC01F075
:1028B00079FC70BD0402002000BFFEE700B587B0C0
:1028C0000121092000F0A0FB01213848FFF790FA10
:1028D00001213748FFF78CFA48208DF81B000020B3
:1028E000ADF81800F020ADF8180003208DF81A009C
:1028F00006A93048FFF7F0F90121042000F074FB2D
:102900000121022000F070FB0020ADF81200ADF8AC
:102910000E004FF6FF70ADF810000020ADF80C006F
:102920008DF8140003A9244801F0DAF903A923481B
:1029300001F0D6F9684601F055F80020ADF8000026
:102940000F20ADF808000020ADF8020069461A48D3
:1029500000F0F2FF6946194800F0EEFF0420ADF8E0
:1029600000000F20ADF808000020ADF80200694615
:10297000124800F0E1FF69460F4800F0DDFF022336
:10298000002203210C4800F0B3FF022300220321A0
:102990000A4800F0ADFF0121074800F08EFF012139
:1029A000064800F08AFF07B000BD000000023000BA
:1029B00000081A00000C014000080040000400401C
:1029C00000B589B00121042000F01EFB18208DF80D
:1029D00023004FF47060ADF8200003208DF8220032
:1029E00008A92448FFF778F90121C80200F00CFB80
:1029F000214801F000F80020ADF81A00ADF81600EB
:102A000040F2CF20ADF818000020ADF814008DF88A
:102A10001C0005A9184801F063F90121164800F0CF
:102A200049FF01A801F01AF96020ADF80400002068
:102A3000ADF80C000120ADF806000020ADF80A004A
:102A400001A90D4800F0DEFF01A90B4801F026F8AE
:102A500001A9094801F074F801A9074801F0C0F87C
:102A60000121054800F035FF0121034800F025FF52
:102A700009B000BD00080140002C01402DE9F84FCD
:102A800006460C4617461D46DDE90B9ADDF8288000
:102A900038480660346037817560A6F80A800020E7
:102AA00030734FEA4960000E7073A6F80EA03248EA
:102AB000844201D0854204D10121042000F0A4FA0F
:102AC0003AE02E48844201D0854204D101210820F9
:102AD00000F09AFA30E02A48844201D0854204D1BD
:102AE0000121102000F090FA26E02648844201D00F
:102AF000854204D10121202000F086FA1CE0224802
:102B0000844201D0854204D10121402000F07CFAAA
:102B100012E01E48844201D0854204D10121802068
:102B200000F072FA08E01A48844201D0854203D1CD
:102B30000121080200F068FA03208DF80200142039
:102B40008DF80300ADF8007069462046FFF7C4F821
:102B5000ADF8008069462846FFF7BEF801223946E5
:102B60002046FFF79AF9012241462846FFF795F9DA
:102B7000BDE8F88F0402002000080140000C01406D
:102B8000001001400014014000180140001C0140E9
:102B9000002001407047000070B5002100230F2283
:102BA000C47804B3154C246804F4E064C4F5E0640C
:102BB000210AC1F10403CA40447804FA03F184787D
:102BC0001440214309010E4C0678A155047804F005
:102BD0001F050124AC4005786D11AD0005F1E0251D
:102BE000C5F8004109E0047804F01F050124AC4059
:102BF000044D0678761145F8264070BD0CED00E0D6
:102C000000E400E080E100E002490143024A116073
:102C1000704700000000FA050CED00E000200449B8
:102C200008604860034888600020C8607047000062
:102C30008C030020DA0FC93F2DE9FC5F81460E4668
:102C40003049484603F03EFC83462E49304603F0A7
:102C500039FC01905846019903F062FA82464FF020
:102C60007C5103F02FFC05465946019803F062FDA4
:102C70008246254903F0C8FA07460021284603F09A
:102C8000EDFC01D83C4601E087F000444FF07C5158
:102C9000204603F017FC82461C488168504603F02A
:102CA0003FFA8046404601F0CBFD2946009003F0F4
:102CB00009FC824615480168504603F031FA134971
:102CC0000860404602F040FB2946009003F0FAFB02
:102CD00082460E484168504603F022FA0B4948608C
:102CE0008868214603F01CFA0849886025F0004AEC
:102CF0000846C168504603F013FA0449C860BDE8AD
:102D0000FC9F00000AD7A33C000068418C03002010
:102D100000210160416081608161C1610162816265
:102D2000C1624162704700002DE9F04F89B004464E
:102D300089469246D9F80800401C142190FBF1F214
:102D400001FB1200C9F8080008B9012000E00020CA
:102D500001287DD16F48B0F90000C0EB0010782148
:102D600090FBF1F5284603F04DFB2060D9F80400F4
:102D700003F048FB6060D4E9000103F0DBFCA061D4
:102D8000A169E06803F09EFBA062A169206903F0DD
:102D900099FB0546E16A03F0C3F9E0625E49E06A27
:102DA00003F05CFB01D25C48E0625C49E06A03F03E
:102DB00055FC01D25948E062606A03F085F9054686
:102DC0004FF06632564B02F06FFECDE904016069A8
:102DD00003F07AF905460E46D4E9060103F0AAFC91
:102DE000834603F071F94F4A4F4BCDE9000102F0E1
:102DF0005BFE07462A46334602F056FECDE9020145
:102E0000DDE9042302F0E8FBCDE9060102F0B2FBA4
:102E10006062D4E90A0103F083F90646616A03F0AF
:102E20007FF905464FF0824103F04CFBA060616BD7
:102E3000A06803F013FB01D2606BA060216BA06857
:102E400003F00CFC01D2206BA0603248008800E047
:102E500043E070B9D9F80400002803DAD9F8040077
:102E6000404201E0D9F80400322802DA0020E06292
:102E7000A060BAF1000F07D0A06803F087FA05B28E
:102E8000284602F047FA06E0A06803F07FFA05B290
:102E9000284601F011FFD9F8040002F0B1FD074601
:102EA000224A234B02F000FE0546224A224B02F042
:102EB0004FFCCDE9060102F05DFBC9F800000020DF
:102EC000C9F80400A069E061BAF1000F05D11B4AFE
:102ED00011681B4A1068FFF7AFFEBAF1010F02D16B
:102EE000FEF7FAFF01E0FEF7EFFFD9F804100844FF
:102EF000C9F80400BAF1000F04D00021114800F015
:102F0000C0FE03E00021104800F0BBFE09B0BDE8A0
:102F1000F08F0000800000200000F0C20000F042AE
:102F20006666E63F343333333333D33FDC4B1AA387
:102F3000750C3540F6285C8FC2F5484074030020BC
:102F40008003002000040040000800402DE9F04705
:102F500004460D46A168206803F0E2F80746D4E96C
:102F6000001003F0AFFA80462846A16803F0AAFAE1
:102F70008146414603F0D4F80646394603F044F949
:102F800060606068BDE8F0872DE9F04104460D46B9
:102F900016462560304603F04DFA074639464FF095
:102FA0007E5003F031F9A06000206060BDE8F08140
:102FB0002DE9F04104460D4616462946084803F01F
:102FC00081FA804641464FF07E5003F01DF90746D6
:102FD000324639462046FFF7D7FFBDE8F0810000B2
:102FE000DB0FC9407047000029B1064AD26902438D
:102FF000044BDA6104E0034AD2698243014BDA618F
:10300000704700000010024029B1064A926902434D
:10301000044B9A6104E0034A92698243014B9A612E
:10302000704700000010024030B50021002200244B
:1030300000232D4D6D6805F00C0121B1042905D048
:10304000082923D105E0294D056022E0274D0560C0
:103050001FE0254D6D6805F47012234D6D6805F471
:103060008034022505EB92421CB9214D5543056081
:103070000BE01D4D6D6805F400351DB11C4D554329
:10308000056002E0194D5543056002E0174D0560EB
:1030900000BF00BF144D6D6805F0F0010909154D22
:1030A0006B5C0568DD4045600F4D6D6805F4E061BF
:1030B000090A104D6B5C4568DD4085600A4D6D68FE
:1030C00005F46051C90A0B4D6B5C4568DD40C56075
:1030D000054D6D6805F44041890B074D6B5CC56873
:1030E000B5FBF3F5056130BD0010024000127A0017
:1030F00000093D0000000020100000207047000083
:1031000000B589B001210420FFF77EFF18208DF85B
:1031100023000220ADF8200003208DF8220008A92A
:103120001E48FEF7D9FD01210846FFF75DFF4FF06D
:10313000804000F060FC0020ADF81A00ADF81600E9
:1031400044F61F60ADF818004720ADF814000020C9
:103150008DF81C0005A94FF0804000F0C1FD012151
:10316000880700F0A7FB01A800F078FD6020ADF80B
:1031700004000020ADF80C000120ADF8060000208E
:10318000ADF80A0001A94FF0804000F087FC012152
:10319000880700F092FB09B000BD00000008014064
:1031A00070B504460D4625B121460448FEF773FE6E
:1031B00003E021460148FEF76CFE70BD000C0140A3
:1031C00010B5044600212046FFF7EAFFB4F5805F02
:1031D00006D0B4F5005F0CD0B4F5804F1BD111E0E0
:1031E00001214803FFF7DCFF01218803FFF7D8FF27
:1031F00011E001210803FFF7D3FF01218803FFF746
:10320000CFFF08E001210803FFF7CAFF01214803AF
:10321000FFF7C6FF00BF00BF10BD00002DE9F04161
:1032200004460B49204602F0EFFF8046094903F0AF
:1032300049F90746084902F073FF064603F0C2F851
:1032400085B229464FF0804000F014FDBDE8F081C2
:10325000000034430000FA440000FA4307280BDA68
:10326000002809DB054991F900104143C1EB011128
:10327000C90009B2024A1180704700001400002002
:103280008000002010B500F001F810BD0CB5002042
:10329000019000903348006840F480303149086064
:1032A00000BF3048006800F4003000900198401CD6
:1032B0000190009818B90198B0F5A06FF1D1294894
:1032C000006800F4003010B10120009001E00020FF
:1032D00000900098012843D12348006840F0100076
:1032E000214908600846006820F00300086008468D
:1032F000006840F0020008601A48406819494860B8
:103300000846406848600846406840F4806048606D
:103310000846406820F47C1048600846406840F445
:10332000E81048600846006840F08070086000BF00
:103330000C48006800F000700028F9D00948406887
:1033400020F00300074948600846406840F002004A
:10335000486000BF0348406800F00C000828F9D11D
:103360000CBD0000001002400020024010B50120FA
:103370000749087000200749087007480068074996
:1033800008600748FEF7B2FDFFF748FC10BD0000DB
:103390001700002016000020200000202C00002034
:1033A00064010020012080F3138800BF002000E0AA
:1033B000401C42F210718842FADB00BF06480068E8
:1033C00000F4E06005490843001D03490860BFF3AD
:1033D0004F8F00BF00BFFEE70CED00E00000FA05D4
:1033E0001548B0F90000002804DA1348B0F90000CD
:1033F000404202E01048B0F90000B0F5347F1ADA1C
:103400000E4890F90000002802DA4FF0FF3100E08A
:1034100001210948B0F90000002804DA0648B0F993
:103420000000404202E00448B0F900007830414317
:1034300008B2014908807047800000201400002075
:103440001548B0F90000002804DA1348B0F900006C
:10345000404202E01048B0F9000000281ADD0F4891
:1034600090F90000002802DA4FF0FF3100E001215E
:103470000948B0F90000002804DA0748B0F9000054
:10348000404202E00448B0F900007838414308B2F5
:1034900001490880704700008000002014000020CF
:1034A00000210160416081607047000010B537481D
:1034B0000088401C052190FBF1F201FB120080B254
:1034C0003249088008B9012000E00020012817D106
:1034D0002F48FEF797FD2E4881692E48FEF741FDE3
:1034E0002D4908602A4841692C48FEF73AFD2C49CD
:1034F0000860274801692B48FEF733FD2A49086018
:103500002A480088A0B12A480088401C142190FB5A
:10351000F1F201FB120080B22549088008B90120B0
:1035200000E00020012830D10020204908802CE054
:10353000012220492048FFF7F7FB00221F492048BD
:10354000FFF7F2FB1F48007890B11F480088401C2D
:10355000142190FBF1F201FB120080B21A4908809D
:1035600008B9012000E00020012801D101F068FA2B
:10357000124A11680F4A106802F0D2FD04464FF05B
:103580007C5102F09FFF1149086010BD32000020FD
:103590000802002060020020280000204C020020C9
:1035A000240000203802002020000020820000209B
:1035B00030000020740300208400002080030020DD
:1035C000BC0000201700002036000020A0010020D1
:1035D00010B50D484FF0E0214861002088610720B8
:1035E000086148170F21002807DA0A07140E074A56
:1035F00000F00F031B1FD45403E00A07130E044A04
:10360000135400BF10BD00003F19010018ED00E089
:1036100000E400E010B51348006840F001001149D3
:10362000086008464068104908400E49486008464E
:1036300000680E4908400B4908600846006820F4FD
:10364000802008600846406820F4FE0048604FF47F
:103650001F008860FFF716FE4FF000600449086005
:1036600010BD0000001002400000FFF8FFFFF6FE52
:1036700008ED00E0F0B50C46154600220021068C4E
:103680004FF6FE773E400684028B018C4FF60C7697
:1036900032407E1C06EA03162E433243104EB042DF
:1036A0000ED0104EB0420BD0B0F1804F08D00E4E6D
:1036B000B04205D00D4EB04202D00D4EB04206D100
:1036C0004FF6FD76314044F00106314305E04FF6F8
:1036D000F576314044F00106314302830184F0BDA8
:1036E000002C01400034014000040040000800406C
:1036F000000C0040F0B50C461546002200210026C3
:10370000078C4FF6EF7C07EA0C070784028B018CCD
:103710004FF6FF7707EA041640F6FF473A404FF6A8
:10372000FF7707EA03373A434FF6FF7707EA0527A3
:103730003A43114FB8420ED0104FB8420BD0B0F1FF
:10374000804F08D00E4FB84205D00E4FB84202D07D
:103750000D4FB84206D14FF6DF77394046F01007DB
:10376000394305E04FF65F77394044F0100739439D
:1037700002830184F0BD0000002C014000340140B0
:103780000004004000080040000C0040F0B50C466A
:103790001546002200210026078C4FF6FF6C07EA31
:1037A0000C070784828B018C4FF6FF7707EA04260B
:1037B0004FF60C773A404FF6FF7707EA03172F438F
:1037C0003A43114FB8420ED0104FB8420BD0B0F16F
:1037D000804F08D00E4FB84205D00E4FB84202D0ED
:1037E0000D4FB84206D14FF6FF57394046F4807767
:1037F000394305E04FF2FF57394044F480773943AD
:1038000082830184F0BD0000002C0140003401409F
:103810000004004000080040000C0040F0B50C46D9
:103820001546002200210026078C4EF6FF7C07EA91
:103830000C070784828B018C4FF6FF7707EA04366A
:1038400040F6FF473A404FF6FF7707EA05273A432D
:103850004FF6FF7707EA03373A43114FB8420ED0CD
:10386000104FB8420BD0B0F1804F08D00E4FB84285
:1038700005D00E4FB84202D00D4FB84206D14DF6DA
:10388000FF77394046F48057394305E047F6FF5744
:10389000394044F48057394382830184F0BD0000ED
:1038A000002C0140003401400004004000080040AA
:1038B000000C0040CA430282704721B1028842F0E6
:1038C0000102028004E002884FF6FE731A40028073
:1038D000704731B1B0F8442042F40042A0F84420CF
:1038E00005E0B0F84420C2F30E02A0F8442070476F
:1038F000F0B50C4615461E46002100220023018922
:10390000028B038C4FF6F877394021434FF6FC4782
:103910003A4040F201173A434FF6DD773B404FF60D
:10392000FF7707EA06172F433B4301810283038495
:10393000F0BD0146888C704770B505460C4624489A
:1039400085420ED0234885420BD0B5F1804F08D078
:103950002148854205D02148854202D02048854231
:1039600000D100E000BF208850B92389A288618877
:103970002846FFF77FFEE188284600F084F925E01D
:10398000208804280AD12389A28861882846FFF765
:10399000B1FEE188284600F07FF917E0208808286A
:1039A0000AD12389A28861882846FFF7EFFEE188C3
:1039B000284600F07EF909E02389A288618828461C
:1039C000FFF72CFFE188284600F07CF970BD00006D
:1039D000002C014000340140000400400008004079
:1039E000000C0040002101804180012181800021E4
:1039F000C1800181704701894FF6F8721140018141
:103A00007047000070B5002400220023058C4FF69B
:103A1000FE7635400584028C8388048B4FF68F75C3
:103A20002C40B51E2C400D882C43751E2A400D8954
:103A30002A434D882A43144DA8420BD0134DA84267
:103A400008D0134DA84205D0124DA84202D0124D05
:103A5000A84213D14FF6F7752A404D892A434FF6F5
:103A6000FB752A408D882A434FF6FF652B404FF6A1
:103A7000FF552B408D892B43CD892B4383800483B5
:103A8000CD888586028470BD002C01400034014041
:103A900000400140004401400048014070B500244E
:103AA00000220023058C4FF6EF7635400584028C0A
:103AB0008388048B48F6FF752C404FF6FF452C4059
:103AC0000D884FF6FF7606EA05252C434FF6DF7585
:103AD0002A400D8906EA05152A434D8806EA051590
:103AE0002A43154DA84202D0144DA8421DD14FF6CD
:103AF0007F752A404D894FF6FF7606EA05152A4361
:103B00004FF6BF752A408D8806EA05152A434FF601
:103B1000FF352B404FF2FF752B408D8906EA850556
:103B20002B43CD8906EA85052B4383800483CD880A
:103B30000587028470BD0000002C01400034014064
:103B400070B5002400220023058C4FF6FF66354037
:103B50000584028C8388848B4FF68F752C404FF63A
:103B6000FC752C400D882C434FF6FF552A400D89DB
:103B70004FF6FF7606EA05252A434D8806EA052515
:103B80002A43154DA84202D0144DA8421DD14FF230
:103B9000FF752A404D894FF6FF7606EA05252A4330
:103BA0004FF6FF352A408D8806EA05252A434EF652
:103BB000FF752B404DF6FF752B408D8906EA0515E4
:103BC0002B43CD8906EA05152B4383808483CD885A
:103BD0008587028470BD0000002C01400034014044
:103BE00070B5002200230024058C4EF6FF76354088
:103BF0000584038C8488828B48F6FF752A404FF633
:103C0000FF452A400D884FF6FF7606EA05252A4330
:103C10004DF6FF752B400D8906EA05352B434D887F
:103C200006EA05352B430B4DA84202D00A4DA842A7
:103C300008D14BF6FF752C408D894FF6FF7606EACA
:103C400085152C4384808283CD88A0F8405003845E
:103C500070BD0000002C01400034014000210180B3
:103C600041808180C180018141818181C181704712
:103C7000818670470187704781877047A0F84010A0
:103C8000704781847047028B4FF6F3731A400283AA
:103C9000028B0A4302837047028B4FF2FF331A40B4
:103CA0000283028B4FF6FF7303EA01231A43028358
:103CB0007047828B4FF6F3731A408283828B0A43DC
:103CC00082837047828B4FF2FF331A408283828B4C
:103CD0004FF6FF7303EA01231A4382837047000003
:103CE000002202881D4B98420ED01D4B98420BD0EB
:103CF000B0F1804F08D01B4B984205D01A4B984228
:103D000002D01A4B984204D14FF68F731A404B8859
:103D10001A43174B984207D0164B984204D04FF6DF
:103D2000FF431A40CB881A4302808B8883850B8817
:103D300003850A4B98420BD0094B984208D00E4B92
:103D4000984205D00D4B984202D00D4B984201D1BC
:103D50000B7A03860123838270470000002C014008
:103D6000003401400004004000080040000C004006
:103D70000010004000140040004001400044014099
:103D80000048014010B540F225511D4800F0FDF8F3
:103D9000012834D11B49087000F0B2F91A49088093
:103DA00008460088402806D11848007818B9012034
:103DB000164908701EE01548007801281AD11248EB
:103DC00000880D280BD102201049087000211048EE
:103DD000104A1288815400200E4908800AE00A48DF
:103DE000007841B20B4802880088401C094B1880BB
:103DF0000748815440F22551014800F09EF810BD5B
:103E0000004800403A0000203C000020380000201C
:103E1000F40200203E00002000B587B001210820F8
:103E2000FFF7F2F818208DF81B000020ADF81800FD
:103E30004FF48060ADF8180003208DF81A0006A931
:103E40002448FDF749FF48208DF81B000020ADF8FD
:103E500018004FF40060ADF8180003208DF81A0028
:103E600006A91C48FDF738FF01218804FFF7BCF8BC
:103E70004FF4165002900020ADF814000C20ADF85D
:103E800012000020ADF81000ADF80E00ADF80C00E7
:103E900002A9114800F0C8F8012240F225510E484D
:103EA00000F09DF84FF4A060FEF7AEFE27208DF8DD
:103EB000040000208DF805008DF8060001208DF823
:103EC000070001A8FEF768FE0121034800F044F84E
:103ED00007B000BD000C01400048004010B504468A
:103EE0002146054800F021F900BF8021024800F07A
:103EF0003FF80028F9D010BD0048004070B50446D6
:103F0000002503E0605DFFF7E9FF6D1C605D0028A0
:103F1000F8D170BD0FB400B59BB01DA8019064210D
:103F200002A8019B1C9AFCF7C5F902A8FFF7E6FF5F
:103F3000002001901BB05DF814FB10B50022002397
:103F400040F66A14A14200D100BF0A120124944035
:103F5000A3B2DC43048010BD21B1828942F4005237
:103F6000828104E082894DF6FF731A408281704796
:103F700002460020B1F5007F00D100BF13880B403E
:103F80000BB1012000E00020704770B5024600240C
:103F900000230025002040F66A16B14200D100BF80
:103FA000C1F3421501F01F03012606FA03F3012DA8
:103FB00002D19689334006E0022D02D1168A3340A1
:103FC00001E0968A33400C12012606FA04F41688A2
:103FD000344013B10CB1012000E0002070BDF0B5F9
:103FE0000346002400260025002040F66A17B94247
:103FF00000D100BF1846C1F3421401F01F0601278B
:1040000007FA06F5012C01D10C3004E0022C01D195
:10401000103000E014301AB107682F43076002E047
:104020000768AF430760F0BD2DE9F04786B005464D
:104030000E460024A24600BFA1460027B08900B169
:1040400000BF2F462C8A4CF6FF700440F0880443D2
:104050002C82AC894EF6F3100440B08831890843B5
:10406000718908430443AC81AC8A4FF6FF40044099
:10407000B0890443AC8201A8FEF7D6FF1F488742EF
:1040800002D1DDF810A001E0DDF80CA0A88900F451
:10409000004040B10AEBCA0000EB0A103168490049
:1040A000B0FBF1F807E00AEBCA0000EB0A10316838
:1040B0008900B0FBF1F86420B8FBF0F0040120099E
:1040C000642101FB1089A88900F4004040B132202E
:1040D00000EBC900B0FBF1F000F00700044308E07A
:1040E000322000EB09106421B0FBF1F000F00F006A
:1040F00004432C8106B0BDE8F08700000038014081
:1041000010B520210548FFF733FF012804D10348EB
:1041100000F006F8C0B210BD0020FCE700480040E7
:1041200001468888C0F308007047C1F30802828006
:10413000704700BFFEE710B5012000F06BFC0120C6
:1041400000F03CFC00F050FC0446002000F036FC7F
:10415000204610BD70B50025012000F05BFC002456
:104160000EE0012000F02AFC00F03EFC012802D104
:10417000802020410543002000F020FC601CC4B2D8
:10418000082CEEDB284670BD10B5012000F042FC83
:10419000012000F013FC002000F03CFC002000F0A7
:1041A0000DFC10BD10B5002000F034FC012000F023
:1041B00005FC012000F02EFC10BD10B50446204681
:1041C00000F028FC012000F0F9FB002000F0F6FBD5
:1041D00010BD70B5054600240DE08021214101EAA3
:1041E000050000F017FC012000F0E8FB002000F0C3
:1041F000E5FB601CC4B2082CEFDB70BD490050EA3F
:10420000C12018BF04204A0D18BF40F0010040F241
:10421000FF72B2EB515F08BF40F00200012808BFF7
:10422000052070474100080218BF04200A0E18BF7D
:1042300040F001004FF07F4232EA010108BF40F038
:104240000200012808BF052070472DE9F0414F1EEC
:1042500000EBC7010446D1E9000115461E4637F0C0
:1042600006020DD02A46334601F01EFC7F1E04EBE9
:10427000C703D3E9002301F0AFF937F00602F1D10B
:10428000022F25D0042F13D0062F18BFBDE8F081D0
:104290002A46334601F008FCD4E90A2301F09CF9D0
:1042A0002A46334601F000FCD4E9082301F094F9D2
:1042B0002A46334601F0F8FBD4E9062301F08CF9D5
:1042C0002A46334601F0F0FBD4E9042301F084F9D7
:1042D0002A46334601F0E8FBD4E9022301F07CF9D9
:1042E0002A46334601F0E0FBD4E90023BDE8F04163
:1042F00001F072B9012202F0C8BA01F06DB90000F4
:10430000024A0020110702F0C0BA000001FDFFFFC1
:10431000012102F0E8BA0021084601F075BF6FF0F4
:104320005E01080702F0DFBA2DE9F04D0D46144694
:104330004FF07F41B1EB440F9EBF4FF0FF3129603A
:10434000BDE8F08D4FF0004040EA0421C4F3C750AF
:10435000783810F01F024A4B4FEA601CC2F1200669
:104360007B44C4F3C750A0F178004FEA601003EB20
:10437000800053F82C3008BFD0E901C612D0D0F825
:1043800004C093402CFA06F73B4387680CFA02FC02
:1043900027FA06F8C06807FA02F2F0404CEA080C67
:1043A00042EA0006A3FB0132ACFB01C0A6FB01619F
:1043B00001EB0C068E4234BF4FF0010C4FF0000CA5
:1043C000C1186144BCF1000F02D0814202D903E060
:1043D000814201D2012000E00020104400F12002BF
:1043E0004FEA92188006CA0C40EA42304F03C5F8E3
:1043F000008002F007F88246384602F01BF86FF0A2
:10440000120102F070FA0746304602F013F86FF01E
:10441000250102F068FA83463946504601F080FED5
:10442000594601F07DFE00F500666FF30B0651461C
:10443000304602F07FF9394602F07CF9594602F025
:104440006FF9104902F03EF807460F49304602F076
:1044500039F8394601F064FE07460C49304602F04F
:1044600031F8394601F05CFE14F0004F08BFBDE89A
:10447000F08DC8F1805180F000402960BDE8F08DDA
:10448000E4260000DB0FC92F22AAFD290000C92F56
:1044900030380A2801D20120704700207047000000
:1044A0002DE9F84F04460D4621F000400091734974
:1044B000814211DC7249884201DC06D12CB12046D0
:1044C0002946BDE8F84FFFF715BF6E48002DCCBF59
:1044D0006D496E49BDE8F88F6D49814211DD6D4926
:1044E0008142D8BF4FF0FF366DDD20462946FFF7E9
:1044F00085FE042808BFFFF703FF20462946BDE8D4
:10450000F88F6549654F25F00045814233DD6449E8
:10451000814219DD002632464FF08043204629466D
:1045200001F05AF880468A4601222046294602F0C8
:10453000ACF900223B4601F0DDFC4246534601F057
:1045400007F904460D463EE001260022BA463B46E6
:104550002046294601F040F880460F460022534687
:104560002046294601F0C6FC42463B4601F0F0F8E1
:1045700004460D4627E04B4981421BDDDFF828A1A8
:104580000226002253462046294601F08DFA0022D9
:104590003B4601F021F880460F4600225346204654
:1045A000294601F0A7FC42463B4601F0D1F80446FB
:1045B0000D4608E0032622462B4600203B4901F029
:1045C000C7F804460D4622462B461046194601F010
:1045D0006BFA8B46824602460B4601F065FA0746A7
:1045E0000246334888460B4606217844FFF72DFEE5
:1045F00052465B4601F058FA82462E488B463A46B0
:10460000434605217844FFF720FE3A46434601F031
:104610004BFA02460B46002E504659460CDA00F083
:10462000DBFF22462B4601F03FFA01B022462B4623
:10463000BDE8F04F01F06CBB00F0CEFF22462B46E8
:1046400001F032FA1C4A7A4402EBC603D3E9002394
:1046500001F050FC22462B4601F04CFC174A7A44EC
:1046600002EBC603D3E9002301F052FB009A002AB3
:10467000B8BF81F00041BDE8F88F00000000104491
:104680000000F07F182D4454FB21F93FFB21F9BFB6
:104690000000DC3F0000203E0000F33F0000F03F40
:1046A0000000E63F008003400000F83F0000F0BF3C
:1046B00022240000E02300007E23000046230000A7
:1046C0002DE9F04D9446CCF1000423F000464CEA6D
:1046D0000404524F46EAD4749A46884621F00042B8
:1046E000BC4206D8454240EA050442EAD474BC42C2
:1046F00004D9BDE8F04D6246FFF7FFBDAAF1405571
:10470000A5F17F6555EA0C040BD0022404EAAA74D3
:10471000434DDFF810E144EAD87452EA000B04D0AC
:104720000CE0BDE8F04DFFF7BBBE002C14BF012C20
:10473000BDE8F08D022C30D0032C32D056EA0C0BA1
:104740000AD0BE4220D1BA4209D126F0804622F0DA
:1047500080423346114617E000291ADB25E0DFF8D6
:10476000C8B0FB44002C04BFDBE90001BDE8F08DBC
:10477000012C02BFDBE9000181F00041BDE8F08DB2
:10478000022C0AD0032C0CD0BA4212D1B8F1000F7F
:104790000BDA23482549BDE8F08D28462449BDE8B9
:1047A000F08D28467146BDE8F08D1D482149BDE8D1
:1047B000F08D921B12153C2AC4BF19481D490EDC0E
:1047C000BAF1000FBEBF12F13C0F0020014606DB1C
:1047D000624600F0BDFF21F00041FFF761FE002CB2
:1047E00008BFBDE8F08D012C04BF81F00041BDE899
:1047F000F08D114A114B022C07D001F07BFB2A46A9
:10480000BDE8F04D0A4B01F075BB01F073FB2A4681
:10481000BDE8F04D064B01F07BBA00000000F07FD0
:10482000182D4454FB2109C0DA220000FB21F9BFF6
:10483000FB210940FB21F93F075C143326A6A13C6C
:104840002DE9F843044602464F486946B0EB420F53
:1048500009D94FF0E640B0EB420F94BF00204FF073
:10486000FF30009030E0494B22F00040834271D984
:104870004749204601F026FE01F022FF804601F064
:1048800085FD00F0030000904249404601F01AFE09
:1048900005464149404601F015FE06463F4940465F
:1048A00001F010FE07463E49404601F00BFE21464E
:1048B00001F036FF394601F03DFF314601F03AFF85
:1048C000294601F037FF04462546009C002C45DBB5
:1048D000294614F0010F08461CD001F0F3FD0646EE
:1048E000304901F0EFFD304901F01AFF314601F087
:1048F000E9FD2E4901F014FC314601F0E3FD2946A3
:1049000001F0E0FD294601F00BFC14F0020F1CD071
:10491000BDE8F88301F0D6FD0546254901F0D2FD3A
:10492000244901F0FDFB294601F0CCFD224901F0AC
:10493000F7FB294601F0C6FD4FF07E5101F0F0FB78
:1049400014F0020F08BFBDE8F88380F00040BDE816
:10495000F883FFE71046FFF7E7FCB4E76800B0F123
:104960007F4F3CBF4FF07E50BDE8F88307D14FF03A
:104970000100FBF74DFDBDE8F843FFF7CCBC28462E
:10498000BDE8F843FFF7C4BCB61F927E490E494606
:1049900083F9223F1A61342C0020A23300A0FD3994
:1049A0000000C93F336D4C39DA82083CA0AA2ABE08
:1049B000B93AB2BACA9F2A3DDDFFFFBE10B5044620
:1049C000084A12681189074A126810682246FDF7E2
:1049D00064FA002000E0401C02490968C98981424C
:1049E000F9DC10BD0402002010B5094A1268518993
:1049F000074A12685068FDF743FA0446002000E0B9
:104A0000401C03490968C9898142F9DC204610BD70
:104A10000402002010B50446084A12685189074A6A
:104A2000126850682246FDF738FA002000E0401C6A
:104A300002490968C9898142F9DC10BD04020020DD
:104A40002DE9FE4F8F4801688F48006801F072FE23
:104A500004468E49204601F001FE04D28C492046CE
:104A600001F068FE04468B49204601F0F7FC04D2B1
:104A70008749204601F054FB04468749486901F004
:104A800023FB07468846204601F01EFB21F000412B
:104A900082463A46434600F0CBFF07D200247E49C7
:104AA000886A7E4901F00EFD7B4988627A49086870
:104AB000214601F007FD0290204601F005FB21F0A0
:104AC000004107460022764B00F0B2FF18D2204684
:104AD00001F0FAFA21F0004107460022134601F0E6
:104AE000E1F80DD26C494868214601F0EBFC07461D
:104AF0006948816A384601F013FB6749886211E012
:104B0000204601F0E1FA21F0004107460022644B03
:104B100001F0C8F806D86049886A624901F0D2FC01
:104B20005D4988625C4AD168906A01F097FD03D2C2
:104B30005948C068584988625748C06880F00047A3
:104B40005548816A384601F089FD05D25248C0684F
:104B500080F00040504988624F48866A90F83800DB
:104B600028B14D48C46200204B4981F838004A48BA
:104B7000C16A204601F0DEFD0190474A116B906941
:104B800001F0A0FC8246444881694FF07E5001F05C
:104B9000D1FD8346019901F095FC80463E4881682D
:104BA000404601F08FFC0746514601F0B9FA3A49F8
:104BB00008630846D0F83090C4623146029801F08C
:104BC000AFFA0746494601F0ABFA0546364890F978
:104BD0000000401C08B985F000452F4890F82400DB
:104BE00098B1324A11682C4A106A01F06BFC0746F2
:104BF0002D4890F90000401C08B987F0004739465D
:104C0000284601F08DFA054600BF23480169284671
:104C100001F024FD01D2204805691F48006980F099
:104C200000472946384601F019FD03D21A480069A9
:104C300080F0004529461E4801F072FA009016489F
:104C4000C1694FF07E5001F075FD82461248416BFC
:104C5000504601F037FC07460F49C869009901F03A
:104C600031FC8046394601F05BFA0B49486308463F
:104C7000406B1049086008460068FEF7CFFABDE8AF
:104C8000FE8F0000200000202C0000200000344394
:104C90000000B443000034C3640100206666663F30
:104CA000000020403333733F140000208C030020A9
:104CB0000000B4421C00002010B50446002C09DAA4
:104CC00000210948FEF7D4FF604281B20648FEF792
:104CD000D1FF07E0A1B20448FEF7CAFF0021024855
:104CE000FEF7C8FF10BD0000002C01409CB0FE483C
:104CF0000023FE4AFE490090FE48FDF72BF9FA48D2
:104D00004FF07E53FC4AFD490090FD48FDF722F923
:104D1000F5484FF07E53F84AF8490090F948FDF7FE
:104D200019F9FDF74BF9FFF777F802220121F64850
:104D3000FDF7D8FCFDF7C2FDFEF74AFCFEF7E0F9EF
:104D4000F248FEF76BFAFDF73BFEFEF70FFB002083
:104D5000EF490870824600BFEEA0FFF7DBF8B6E22D
:104D6000FDF7A0F801281DD1FDF7AAF88246EF480B
:104D7000C1695046FBF704FB20B9EDA0FFF7CAF864
:104D8000FEF710FBE94881695046FBF7F9FA50B984
:104D9000EAA0FFF7BFF8EB4800780128E3D1002034
:104DA000FCF75CFF81E1E14841695046FBF7E8FA16
:104DB00060B9E5A0FFF7AEF8E24890F90000401CAA
:104DC0000028EFD10120FCF749FF6EE1D74805220A
:104DD00001695046FBF788FAF0BBFDF771F882468F
:104DE0009AF807002E2811D19AF806109AF8052093
:104DF0000A2303FB0211A1F5047001F003FB044632
:104E0000D34901F08DFCD349086016E09AF80510EB
:104E1000642251439AF806200A2303FB02119AF8F0
:104E200007201144A1F5A050D03801F0EBFA044658
:104E3000C74901F075FCC7490860C648006801F021
:104E400043F9044622460B46C3A0FFF763F8C14866
:104E50000068FEF7E3F928E1FFE7B448016B50462C
:104E6000FBF78EFA50B9C1A0FFF754F80020C249F1
:104E700008704FF48040FEF7A3F916E1AB48816A51
:104E80005046FBF77DFA48B9BCA0FFF743F8012074
:104E9000B94908700003FEF793F906E1A348C16A17
:104EA0005046FBF76DFA48B9B7A0FFF733F8022078
:104EB000B14908700003FEF783F9F6E09B48016AE8
:104EC0005046FBF75DFA48B9B2A0FFF723F89048C7
:104ED00000780028BFD1FEF749FAE6E09348416A1E
:104EE0005046FBF74DFA60B9ADA0FFF713F8AE4896
:104EF00000780028AFD1864908700120AA490870BF
:104F0000D3E08A4801685046FBF73AFA28B9A7A0CF
:104F1000FFF700F8FEF764FAC7E08448416850469E
:104F2000FBF72EFA28B9A6A0FEF7F4FFFEF788FAE1
:104F3000BBE07E48C1685046FBF722FA30B9A6A014
:104F4000FEF7E8FF0020A9490880AEE07748052277
:104F5000416A5046FBF7C8F9F0BBFCF7B1FF824647
:104F60009AF807002E2811D19AF806109AF8052011
:104F70000A2303FB0211A1F5047001F043FA044671
:104F8000734901F0CDFB7349086016E09AF80510EB
:104F9000642251439AF806200A2303FB02119AF86F
:104FA00007201144A1F5A050D03801F02BFA044697
:104FB000674901F0B5FB674908606648006801F081
:104FC00083F8044622460B4663A0FEF7A3FF614820
:104FD0000068FEF723F968E0FFE754480422416BBC
:104FE0005046FBF781F9002849D1FCF769FF82465A
:104FF0009AF80410642251439AF805200A2303FB0F
:1050000002119AF806201144A1F5A050D03801F001
:10501000F9F90546344901F0F7F804469AF8040016
:1050200044281DD049280ED0502826D1704804604D
:105030000146086801F048F805462A460B466DA06F
:10504000FEF768FF19E06A4844600146486801F0CD
:105050003BF805462A460B466CA0FEF75BFF0CE0CA
:10506000634884600146886801F02EF805462A46A8
:105070000B466CA0FEF74EFF00BF00BF15E02B48AB
:10508000062281685046FBF72FF970B9FCF718FF2C
:1050900082469AF80610303948B2FEF7DFF85348D6
:1050A000B0F9001065A0FEF735FF5149886801F09E
:1050B0000BF804460D464E49486801F005F80646CF
:1050C0000F464B49086800F0FFFF804689465F495C
:1050D000486800F0F9FFCDE91A015C49086800F062
:1050E000F3FFCDE91801B3E00000C842CDCC4C3E3F
:1050F0000AD7233D38020020CDCCCC3D0AD7233C33
:105100004C02002060020020000C01400000B4426C
:105110001700002045766572797468696E672069AA
:1051200073207265616479210D0A0000400000203F
:105130005265736574210D0A00000000446F776E9C
:10514000210D0A00140000205570210D0A000000F6
:10515000000034431C000020526F74617465207499
:105160006F20256620646567210D0A005374616E07
:1051700064206279210D0A00180000205061726BD2
:10518000696E67210D0A000009486974746564211D
:105190000D0A00005374726169676874210D0A007A
:1051A0005475726E210D0A0016000020537065655B
:1051B0006452616E6B20616464210D0A000000007E
:1051C000537065656452616E6B206465636C696ED3
:1051D00065210D0A00000000537065656452616E20
:1051E0006B2073746F70210D0A0000008000002096
:1051F000640100205365742068656164696E6720EE
:105200004B7020746F202566210D0A0053657420B1
:1052100068656164696E67204B6920746F2025663C
:10522000210D0A005365742068656164696E67200A
:105230004B6420746F202566210D0A0053455420CD
:1052400025642052616E6B210D0A00008C03002042
:105250001F48006800F038FFCDE916011D480068BE
:1052600000F032FFCDE914011B48006800F02CFF6C
:10527000CDE912011949B1F9060001F0C3F8184946
:105280000F9000F0C1FF834600F01EFFCDE90A89B0
:10529000CDE90C67CDE90E45CDE91001DDE91A0134
:1052A000CDE90801DDE91801CDE90601DDE91601C6
:1052B000CDE90401DDE91401CDE90201DDE91201C6
:1052C000CDE9000107A0DDE91023FEF723FE47E545
:1052D000A00100201C000020200000200802002067
:1052E00033338341252E32662C252E32662C252E13
:1052F00032662C252E32662C252E32662C252E3237
:10530000662C252E32662C252E32662C252E3266F2
:105310000D0A000010B50446002C09DA00210948E6
:10532000FEF7AAFC604281B20648FEF7A7FC07E040
:10533000A1B20448FEF7A0FC00210248FEF79EFC43
:1053400010BD0000002C01402DE9F8430446024640
:1053500052486946B0EB420F09D94FF0E640B0EB36
:10536000420F94BF00204FF0FF30009030E04C4BD4
:1053700022F00040834271D94A49204601F0A2F848
:1053800001F09EF9804601F001F800F00300009062
:105390004549404601F096F805464449404601F02B
:1053A00091F806464249404601F08CF807464149CB
:1053B000404601F087F8214601F0B2F9394601F084
:1053C000B9F9314601F0B6F9294601F0B3F90446BE
:1053D0002546009C002C45DB294614F0010F0846A9
:1053E0001ED001F06FF80546334901F06BF83349E0
:1053F00000F096FE294601F065F8314900F090FE74
:10540000294601F05FF84FF07E5100F089FE14F05C
:10541000020F08BFBDE8F88380F00040BDE8F883C4
:1054200001F050F80646274901F04CF8264901F0F2
:1054300077F9314601F046F8244900F071FE314613
:1054400001F040F8294601F03DF8294600F068FED9
:1054500014F0020FE0D1BDE8F883FFE71046FEF735
:1054600063FFB4E76800B0F17F4F09D22846FEF72A
:10547000D9FE042808BFFEF752FF2846BDE8F8838E
:1054800006D10120FAF7C4FFBDE8F843FEF743BF99
:105490002846BDE8F843FEF73BBF0000B61F927EEA
:1054A000490E494683F9223F1A61342C0020A23369
:1054B00000A0FD390000C93FB93AB2BACA9F2A3DDF
:1054C000DDFFFFBE336D4C39DA82083CA0AA2ABE4C
:1054D0002DE9F04106460F4600F026FC041E0D465D
:1054E00018BF0120284320F00040C0F17F6000F188
:1054F000E040C00F0ED0301C18BF0120384320F010
:105500000040C0F17F6000F1E040C00F04BF012007
:10551000FAF77EFF20462946BDE8F08110B5002944
:105520000AD00878002807D005487844FAF728FF01
:10553000002801D0002010BD0248784410BD0000B2
:10554000961600008E16000010B500290AD00878C3
:10555000002807D005487844FAF712FF002801D048
:10556000002010BD0248784410BD000086160000DF
:105570007E16000021F00042A2F16052B2F5801FB9
:1055800001F0004328BFD2F17F6C0BD95FEA001C09
:1055900043EAC20242EB507018BF704728BF20F0A8
:1055A00001007047B2F5801FBCBF184670474FEA34
:1055B000410C1CF5001F02D2084601F04AB870B534
:1055C00000F01CFB00000089FFF7F6BF4FF0004021
:1055D000A0F580007047000010B591EA030F48BFA6
:1055E00083F0004300F18E84841A71EB030C05D222
:1055F000121943EB0C03001B61EB0C01DFF824E1F3
:105600004FEA1154A4EB135C1EEA430F18BF9EEA45
:10561000445F73D023EA0E03DCF1200E21EA04512B
:1056200043F4801332D322FA0CFE10EB0E0023FA5F
:105630000CFE41EB0E01CCF1200E03FA0EFE10EB36
:105640000E0051F10001B1F5801FCCF1200E32D2D5
:1056500001EB045112FA0EF2BDE8104058BF70473A
:10566000401C38BF5FEA420218BF7047002814BFD1
:1056700020F0010041F100014FEA410313F5001F42
:1056800038BF7047A1F1C04100F006BB012A43EBCF
:105690000302ACF1200CDCF11F0E32BF4FF0000E04
:1056A00023FA0CF310EB030041EB0451B4EB115F50
:1056B000D0D0A1EB045101F5801149085FEA300018
:1056C00001EB04510ED350F1000038BF12FA0EFE68
:1056D00008D1BDE81040C9E7401C38BF5FEA42026C
:1056E000CAD1C3E7BDE810404FEA410313F5001FDC
:1056F00038BF7047A1F1C04100F0CEBA9EEA445FC6
:1057000008D011EA5E0FBDE8104004BF01F000416F
:1057100000207047BDE8104070B500F06FFA00BF80
:1057200064FBBE3E0000E0FF02494FF0000001F0C4
:105730007AB800BF0000F87F491058BFC1F140415E
:105740005B1058BFC3F140438B42EFF300807047BA
:105750002DE9C04130B4DFF8A0C23CEA111418BFF3
:105760003CEA131400F0EC8081EA03051CEA1114F2
:1057700044EAD57418BF1CEA131500F0C780A4EBE7
:1057800005044FF0004545EAC12145EAC32341EA3B
:10579000505143EA525304F17F74994204F50034A6
:1057A0004FEAC0204FEAC22208BF904200F09C801E
:1057B0004FEA13650FF24016765D4FEA134506FB7C
:1057C00005F7C7F1807706FB07F74FEAD737A7FB46
:1057D00003687642C8F58038A7FB06CE38BFA8F12B
:1057E000010807FB08E64FF0000EA6FB028CE6FB63
:1057F00003CEDCF1000CCEF1004E38BFAEF1010E4D
:10580000A6FB0C584FF000074FF00005E6FB0E8793
:10581000A1FB08C6A0FB07CE16EB0E0645F100055E
:10582000E1FB076515F1E04E7EBFA4F580345FEA29
:1058300046066D4116F1800745F100054FEA17272E
:105840004FEA066647EA0567A6F1DE46B6F1805FD5
:105850004FEA15251FD9384624F0010C05EBC47119
:10586000BCF1FE6F01EB0C1102D8F0BCBDE8008169
:1058700024425CBF01F5801E9EEAC47F02D4F0BCC6
:10588000BDE80081244238D4F0BCA1F1C041BDE89C
:10589000004100F001BA4FEAD22242EA43524FEAF5
:1058A000D323A7FB02864FEAD02040EA415007FBF2
:1058B00003661EEA0E0F4FEAD12105FB026658BFB0
:1058C000A6EB0056B6EB00564FEA520E4EEAC37EE8
:1058D00018EB0E0E56EB530EBDD518EB02085E41C9
:1058E0007F1C55F10005B6E74FF480154FF0000717
:1058F0004FF000064FF00008ADE7F0BC4FF000009D
:1059000001F1C04101F00041BDE8008111EA0C1F26
:105910000CEA131500D00CE013EA0C1F00F02580F0
:105920004FF00000F0BC81EA030101F00041BDE846
:105930000081F0BCBDE8004181EA030100F0ACB990
:10594000F0BCBDE8004170B500F058F9097EFC3E9E
:1059500000F007B881EA03014FF0000001F00041B8
:10596000704781EA030100F097B9F0BCBDE800413F
:105970004FF0000021497047FFFDFBF9F7F5F4F205
:10598000F0EEEDEBE9E8E6E4E3E1E0DEDDDBDAD8DA
:10599000D7D5D4D3D1D0CFCDCCCBCAC8C7C6C5C438
:1059A000C2C1C0BFBEBDBCBBBAB9B8B7B6B5B4B34F
:1059B000B2B1B0AFAEADACABAAA9A8A8A7A6A5A43A
:1059C000A3A3A2A1A09F9F9E9D9C9C9B9A999998FE
:1059D0009797969595949393929191908F8F8E8EA1
:1059E0008D8C8C8B8B8A898988888787868585842E
:1059F00084838382828181800000FF070000F87F1A
:105A000010F0004248BF4042B0FA80F310FA03F1B0
:105A10000AD0C3F11D0303F580634FEA415002EB46
:105A2000035202EBD12170474FF000007047000095
:105A300051EA030C17D41CF5801F58BFBCF5801F1A
:105A400000F10680994218BF704708BF9042704726
:105A500007D711F5801F58BF13F5801F19D499423D
:105A60007047894270471CF5801F08D5BCF5801F20
:105A7000F7D58B4218BF704708BF824270474FF47A
:105A8000001C1CEB410F38BF1CEB430F01D28B42B3
:105A9000704770B500F0B2F8922449004FF0005101
:105AA0004FF08053FFF748BEDFF848C170B51CEADD
:105AB000111E1EBF1CEA13159EEA0C0F95EA0C0F6F
:105AC00000F06F8081EA030423EA4C134EEAD47E8F
:105AD00021EA4C1141F4801143F48013AE44A1FB40
